:020000040800F2
:1000000000000220F54700088D4400088F440008D6
:100010009144000893440008954400080000000043
:1000200000000000000000000000000097440008ED
:1000300099440008000000009B4400089D4400080B
:10004000454800084548000845480008454800085C
:10005000454800084548000845480008454800084C
:10006000454800084548000845480008454800083C
:10007000A5440008454800084548000845480008D0
:10008000454800084548000845480008454800081C
:10009000B5440008454800084548000845480008A0
:1000A00045480008454800084548000845480008FC
:1000B00045480008454800084548000845480008EC
:1000C00045480008454800084548000845480008DC
:1000D000454800080D32000845480008C1390008AD
:1000E00045480008454800084548000845480008BC
:1000F00045480008454800084548000845480008AC
:10010000454800084548000845480008454800089B
:10011000454800084548000845480008454800088B
:100120004548000845480008C544000845480008FF
:10013000454800084548000845480008454800086B
:10014000D5440008454800084548000845480008CF
:100150004548000845480008E544000845480008AF
:10016000454800084548000845480008454800083B
:1001700045480008454800084548000800000000C0
:0801800045480008454800084D
:1001C00010B5054C237833B9044B13B10448AFF391
:1001D00000800123237010BDB8090020000000003A
:1001E000DCBA000808B5034B1BB103490348AFF361
:1001F000008008BD00000000BC090020DCBA000837
:1002000081F0004102E000BF83F0004330B54FEAC7
:1002100041044FEA430594EA050F08BF90EA020F34
:100220001FBF54EA000C55EA020C7FEA645C7FEAC7
:10023000655C00F0E2804FEA5454D4EB5555B8BFEA
:100240006D420CDD2C4480EA020281EA030382EA5B
:10025000000083EA010180EA020281EA0303362DED
:1002600088BF30BD11F0004F4FEA01314FF4801CC0
:100270004CEA113102D0404261EB410113F0004FD2
:100280004FEA03334CEA133302D0524263EB430389
:1002900094EA050F00F0A780A4F10104D5F1200E27
:1002A0000DDB02FA0EFC22FA05F2801841F1000182
:1002B00003FA0EF2801843FA05F359410EE0A5F156
:1002C00020050EF1200E012A03FA0EFC28BF4CF087
:1002D000020C43FA05F3C01851EBE37101F000453D
:1002E00007D54FF0000EDCF1000C7EEB00006EEB4A
:1002F0000101B1F5801F1BD3B1F5001F0CD34908D4
:100300005FEA30004FEA3C0C04F101044FEA44522A
:1003100012F5800F80F09A80BCF1004F08BF5FEAB1
:10032000500C50F1000041EB045141EA050130BD91
:100330005FEA4C0C404141EB0101013C28BFB1F5A3
:10034000801FE9D291F0000F04BF01460020B1FAEE
:1003500081F308BF2033A3F10B03B3F120020CDAC1
:100360000C3208DD02F1140CC2F10C0201FA0CF09F
:1003700021FA02F10CE002F11402D8BFC2F1200C04
:1003800001FA02F120FA0CFCDCBF41EA0C019040BA
:10039000E41AA2BF01EB0451294330BD6FEA040403
:1003A0001F3C1CDA0C340EDC04F11404C4F12002EE
:1003B00020FA04F001FA02F340EA030021FA04F300
:1003C00045EA030130BDC4F10C04C4F1200220FA57
:1003D00002F001FA04F340EA0300294630BD21FA95
:1003E00004F0294630BD94F0000F83F4801306BF5B
:1003F00081F480110134013D4EE77FEA645C18BF4F
:100400007FEA655C29D094EA050F08BF90EA020FE5
:1004100005D054EA000C04BF1946104630BD91EADD
:10042000030F1EBF0021002030BD5FEA545C05D1E0
:100430004000494128BF41F0004130BD14F580041F
:100440003CBF01F5801130BD01F0004545F0FE4193
:1004500041F470014FF0000030BD7FEA645C1ABFC8
:10046000194610467FEA655C1CBF0B46024650EAFF
:10047000013406BF52EA033591EA030F41F400212B
:1004800030BD00BF90F0000F04BF0021704730B5B1
:100490004FF4806404F132044FF000054FF0000186
:1004A00050E700BF90F0000F04BF0021704730B547
:1004B0004FF4806404F1320410F0004548BF40421C
:1004C0004FF000013EE700BF42004FEAE2014FEA71
:1004D00031014FEA02701FBF12F07F4393F07F4F4C
:1004E00081F06051704732F07F4208BF704793F04F
:1004F0007F4F04BF41F40021704730B54FF4607462
:1005000001F0004521F000411CE700BF50EA010264
:1005100008BF704730B54FF000050AE050EA01020D
:1005200008BF704730B511F0004502D5404261EB7D
:1005300041014FF4806404F132045FEA915C3FF4BE
:10054000D8AE4FF003025FEADC0C18BF03325FEA5B
:10055000DC0C18BF033202EBDC02C2F1200300FA0C
:1005600003FC20FA02F001FA03FE40EA0E0021FA31
:1005700002F11444BDE600BF4FEA4102B2F1E0438C
:1005800024BFB3F5001CDCF1FE5C0DD901F0004C7A
:100590004FEAC0024CEA5070B2F1004F40EB8300CA
:1005A00008BF20F00100704711F0804F21D113F1F6
:1005B0003872BCBF01F00040704741F480114FEA2F
:1005C0005252C2F11802C2F1200C10FA0CF320FAB8
:1005D00002F018BF40F001004FEAC1234FEAD323D5
:1005E00003FA0CFC40EA0C0023FA02F34FEA43033F
:1005F000CCE77FEA625307D150EA01331EBF4FF0C8
:10060000FE4040F44000704701F0004040F0FE40E2
:1006100040F40000704700BF80F0004002E000BFDF
:1006200081F0004142001FBF5FEA410392EA030FDD
:100630007FEA226C7FEA236C6AD04FEA1262D2EB27
:100640001363C1BFD218414048404140B8BF5B422C
:10065000192B88BF704710F0004F40F4000020F0C5
:100660007F4018BF404211F0004F41F4000121F0DB
:100670007F4118BF494292EA030F3FD0A2F1010225
:1006800041FA03FC10EB0C00C3F1200301FA03F163
:1006900000F0004302D5494260EB4000B0F5000F86
:1006A00013D3B0F1807F06D340084FEA310102F145
:1006B0000102FE2A51D2B1F1004F40EBC25008BFF7
:1006C00020F0010040EA03007047490040EB0000C1
:1006D000013A28BFB0F5000FEDD2B0FA80FCACF1C2
:1006E000080CB2EB0C0200FA0CF0AABF00EBC250EF
:1006F00052421843BCBFD0401843704792F0000FDD
:1007000081F4000106BF80F400000132013BB5E72F
:100710004FEA41037FEA226C18BF7FEA236C21D0A5
:1007200092EA030F04D092F0000F08BF084670470A
:1007300090EA010F1CBF0020704712F07F4F04D1D8
:10074000400028BF40F00040704712F100723CBFEB
:1007500000F50000704700F0004343F0FE4040F415
:10076000000070477FEA226216BF08467FEA2363D3
:100770000146420206BF5FEA412390EA010F40F4BE
:10078000800070474FF0000304E000BF10F000430A
:1007900048BF40425FEA000C08BF704743F09643F1
:1007A00001464FF000001CE050EA010208BF70470C
:1007B0004FF000030AE000BF50EA010208BF704793
:1007C00011F0004302D5404261EB41015FEA010CA8
:1007D00002BF84460146002043F0B64308BFA3F1A0
:1007E0008053A3F50003BCFA8CF2083AA3EBC25382
:1007F00010DB01FA02FC634400FA02FCC2F12002A1
:10080000BCF1004F20FA02F243EB020008BF20F0D7
:100810000100704702F1200201FA02FCC2F120023D
:1008200050EA4C0021FA02F243EB020008BF20EA32
:10083000DC7070474FF0FF0C1CEAD0521EBF1CEA60
:10084000D15392EA0C0F93EA0C0F6FD01A4480EA4E
:10085000010C400218BF5FEA41211ED04FF0006337
:1008600043EA501043EA5111A0FB01310CF0004063
:10087000B1F5000F3EBF490041EAD3715B0040EA89
:10088000010062F17F02FD2A1DD8B3F1004F40EB59
:10089000C25008BF20F00100704790F0000F0CF02C
:1008A000004C08BF49024CEA502040EA51207F3AF0
:1008B000C2BFD2F1FF0340EAC250704740F40000CB
:1008C0004FF00003013A5DDC12F1190FDCBF00F0BC
:1008D00000407047C2F10002410021FA02F1C2F16A
:1008E000200200FA02FC5FEA310040F1000053EA06
:1008F0004C0308BF20EADC70704792F0000F00F054
:10090000004C02BF400010F4000F013AF9D040EA59
:100910000C0093F0000F01F0004C02BF490011F4ED
:10092000000F013BF9D041EA0C018FE70CEAD153EB
:1009300092EA0C0F18BF93EA0C0F0AD030F0004C6B
:1009400018BF31F0004CD8D180EA010000F000401F
:10095000704790F0000F17BF90F0004F084691F0DD
:10096000000F91F0004F14D092EA0C0F01D1420217
:100970000FD193EA0C0F03D14B0218BF084608D1E0
:1009800080EA010000F0004040F0FE4040F400002A
:10099000704740F0FE4040F4400070474FF0FF0CBD
:1009A0001CEAD0521EBF1CEAD15392EA0C0F93EA04
:1009B0000C0F69D0A2EB030280EA010C49024FEA56
:1009C000402037D04FF0805343EA111143EA10130F
:1009D0000CF000408B4238BF5B0042F17D024FF4C7
:1009E000000C8B4224BF5B1A40EA0C00B3EB510FA2
:1009F00024BFA3EB510340EA5C00B3EB910F24BF8B
:100A0000A3EB910340EA9C00B3EBD10F24BFA3EB0F
:100A1000D10340EADC001B0118BF5FEA1C1CE0D1D7
:100A2000FD2A3FF650AF8B4240EBC25008BF20F08A
:100A3000010070470CF0004C4CEA50207F32C2BFDE
:100A4000D2F1FF0340EAC250704740F400004FF07B
:100A50000003013A37E792F0000F00F0004C02BFAC
:100A6000400010F4000F013AF9D040EA0C0093F076
:100A7000000F01F0004C02BF490011F4000F013BD0
:100A8000F9D041EA0C0195E70CEAD15392EA0C0F38
:100A900008D142027FF47DAF93EA0C0F7FF470AF70
:100AA000084676E793EA0C0F04D14B023FF44CAFB3
:100AB00008466EE730F0004C18BF31F0004CCAD148
:100AC00030F000427FF45CAF31F000437FF43CAF84
:100AD0005FE700BF4FF0FF3C06E000BF4FF0010CA6
:100AE00002E000BF4FF0010C4DF804CD4FEA400288
:100AF0004FEA41037FEA226C18BF7FEA236C11D0D2
:100B000001B052EA530C18BF90EA010F58BFB2EB84
:100B1000030088BFC81738BF6FEAE17018BF40F004
:100B2000010070477FEA226C02D15FEA402C05D1B8
:100B30007FEA236CE4D15FEA412CE1D05DF8040B3D
:100B4000704700BF844608466146FFE70FB5FFF7D0
:100B5000C9FF002848BF10F1000F0FBD4DF808ED88
:100B6000FFF7F4FF0CBF012000205DF808FB00BF79
:100B70004DF808EDFFF7EAFF34BF012000205DF8D3
:100B800008FB00BF4DF808EDFFF7E0FF94BF012020
:100B900000205DF808FB00BF4DF808EDFFF7D2FF1D
:100BA00094BF012000205DF808FB00BF4DF808ED60
:100BB000FFF7C8FF34BF012000205DF808FB00BF2D
:100BC0004FEA4002B2F1FE4F0FD34FF09E03B3EB5A
:100BD00012620DD94FEA002343F0004310F0004F9A
:100BE00023FA02F018BF404270474FF000007047F0
:100BF00012F1610F01D1420205D110F0004008BF8F
:100C00006FF0004070474FF00000704753B94AB989
:100C1000002908BF00281CBF4FF0FF314FF0FF3004
:100C200000F074B9ADF1080C6DE904CE00F006F8DF
:100C3000DDF804E0DDE9022304B070472DE9F04758
:100C4000089E0D4604468846002B4DD18A429446A4
:100C500068D9B2FA82F252B101FA02F3C2F120016C
:100C600020FA01F10CFA02FC41EA030894404FEA31
:100C70001C45210CB8FBF5FE1FFA8CF705FB1E8303
:100C800041EA03430EFB07F199420BD91CEB030326
:100C90000EF1FF3080F01E81994240F21B81AEF1CF
:100CA000020E63445B1AA4B2B3FBF5F005FB1033EC
:100CB00044EA034400FB07F7A7420AD91CEB0404EB
:100CC00000F1FF3380F00881A74240F205816444BF
:100CD0000238E41B40EA0E4000211EB1D44000233C
:100CE000C6E90043BDE8F0878B4208D9002E00F02A
:100CF000EE800021C6E900050846BDE8F087B3FA9A
:100D000083F100294AD1AB4202D3824200F2F9803A
:100D1000841A65EB030301209846002EE2D0C6E951
:100D20000048DFE702B9FFDEB2FA82F2002A40F0A3
:100D30009180A1EB0C054FEA1C471FFA8CFE0121A4
:100D4000B5FBF7F307FB1350250C45EA00450EFBF6
:100D500003F0A84208D91CEB050503F1FF3802D2C5
:100D6000A84200F2CB8043462D1AA4B2B5FBF7F09F
:100D700007FB105544EA05440EFB00FEA64508D9C2
:100D80001CEB040400F1FF3502D2A64500F2BB8043
:100D90002846A4EB0E0440EA03409EE7C1F1200779
:100DA0008B4022FA07FC4CEA030C20FA07F405FA00
:100DB00001F31C43FD404FEA1C4900FA01F3B5FB67
:100DC000F9F8200C1FFA8CFE09FB185540EA05457E
:100DD00008FB0EF0A84202FA01F20BD91CEB050544
:100DE00008F1FF3A80F08880A84240F28580A8F19F
:100DF000020865442D1AA4B2B5FBF9F009FB1055A1
:100E000044EA054500FB0EFEAE4508D91CEB05057E
:100E100000F1FF346CD2AE456AD90238654440EA2D
:100E20000840A0FB0294A5EB0E05A542C846A646C5
:100E300056D353D05EB1B3EB080265EB0E0505FA4D
:100E400007F722FA01F3CD401F43C6E900750021E0
:100E5000BDE8F087C2F1200320FA03F10CFA02FC8E
:100E600025FA03F395400D434FEA1C471FFA8CFE09
:100E7000B3FBF7F107FB11302B0C43EA004301FBF6
:100E80000EF0984204FA02F408D91CEB030301F1B6
:100E9000FF382FD298422DD9023963441B1AADB2C4
:100EA000B3FBF7F007FB103345EA034500FB0EF3F5
:100EB000AB4208D91CEB050500F1FF3816D2AB4256
:100EC00014D902386544ED1A40EA014138E7314649
:100ED000304607E78646E5E61846FAE64B45A9D2CE
:100EE000B9EB020864EB0C0E0138A3E74046EAE7D1
:100EF000204694E74146D1E7D0467BE7023B654474
:100F000032E7084609E76444023842E7704700BF09
:100F100001F0FF01102A2BDB10F0070F08D010F8AA
:100F2000013B013A8B422DD010F0070F42B3F6D1AE
:100F3000F0B441EA012141EA014122F007047FF0C7
:100F400000070023F0E80256083C85EA010586EA1E
:100F5000010685FA47F5A3FA87F586FA47F6A5FA5A
:100F600087F68EB9EED1F0BC01F0FF0102F0070266
:100F700032B110F8013B013A83EA010313B1F8D111
:100F80000020704701387047002D06BF35460338F2
:100F9000073815F0010F07D1013015F4807F02BF2B
:100FA000013015F4C03F0130F0BC0138704700BF7C
:100FB000844641EA000313F003036DD1403A41D364
:100FC00051F8043B40F8043B51F8043B40F8043B23
:100FD00051F8043B40F8043B51F8043B40F8043B13
:100FE00051F8043B40F8043B51F8043B40F8043B03
:100FF00051F8043B40F8043B51F8043B40F8043BF3
:1010000051F8043B40F8043B51F8043B40F8043BE2
:1010100051F8043B40F8043B51F8043B40F8043BD2
:1010200051F8043B40F8043B51F8043B40F8043BC2
:1010300051F8043B40F8043B51F8043B40F8043BB2
:10104000403ABDD2303211D351F8043B40F8043B52
:1010500051F8043B40F8043B51F8043B40F8043B92
:1010600051F8043B40F8043B103AEDD20C3205D362
:1010700051F8043B40F8043B043AF9D2043208D05A
:10108000D2071CBF11F8013B00F8013B01D30B88CC
:1010900003806046704700BF082A13D38B078DD0AA
:1010A00010F003038AD0C3F10403D21ADB071CBF7C
:1010B00011F8013B00F8013B80D331F8023B20F8E6
:1010C000023B7BE7043AD9D3013A11F8013B00F81F
:1010D000013BF9D20B7803704B7843708B788370A7
:1010E00060467047000000000000000000000000A3
:1010F00000000000000000000000000000000000F0
:1011000090F800F06DE9024520F007016FF0000C47
:1011100010F0070491F820F040F049804FF00004EF
:101120006FF00700D1E9002391F840F000F10800CA
:1011300082FA4CF2A4FA8CF283FA4CF3A2FA8CF302
:101140004BBBD1E9022382FA4CF200F10800A4FA69
:101150008CF283FA4CF3A2FA8CF3E3B9D1E90423BD
:1011600082FA4CF200F10800A4FA8CF283FA4CF3F4
:10117000A2FA8CF37BB9D1E9062301F1200182FAAE
:101180004CF200F10800A4FA8CF283FA4CF3A2FAB4
:101190008CF3002BC6D0002A04BF04301A4612BAC2
:1011A000B2FA82F2FDE8024500EBD2007047D1E9C5
:1011B000002304F00305C4F100004FEAC50514F054
:1011C000040F91F840F00CFA05F562EA05021CBF25
:1011D00063EA050362464FF00004A9E770B54FF0DB
:1011E000FF0C4CF4E06C1CEA11541DBF1CEA1355B3
:1011F00094EA0C0F95EA0C0F00F0DEF82C4481EA1B
:10120000030621EA4C5123EA4C5350EA013518BF3A
:1012100052EA033541F4801143F4801338D0A0FB27
:1012200002CE4FF00005E1FB02E506F00042E0FBD4
:1012300003E54FF00006E1FB03569CF0000F18BFDA
:101240004EF0010EA4F1FF04B6F5007F64F5407482
:1012500004D25FEA4E0E6D4146EB060642EAC62115
:1012600041EA55514FEAC52040EA5E504FEACE2E82
:10127000B4F1FD0C88BFBCF5E06F1ED8BEF1004F85
:1012800008BF5FEA500E50F1000041EB045170BD01
:1012900006F0004646EA010140EA020081EA030145
:1012A000B4EB5C04C2BFD4EB0C0541EA045170BD41
:1012B00041F480114FF0000E013C00F3AB8014F1BB
:1012C000360FDEBF002001F0004170BDC4F1000404
:1012D000203C35DA0C341BDC04F11404C4F1200585
:1012E00000FA05F320FA04F001FA05F240EA0200E0
:1012F00001F0004221F0004110EBD37021FA04F616
:1013000042EB06015EEA430E08BF20EAD37070BDCF
:10131000C4F10C04C4F1200500FA04F320FA05F02E
:1013200001FA04F240EA020001F0004110EBD37030
:1013300041F100015EEA430E08BF20EAD37070BDA0
:10134000C4F1200500FA05F24EEA020E20FA04F379
:1013500001FA05F243EA020321FA04F001F0004128
:1013600021FA04F220EA020000EBD3705EEA430E99
:1013700008BF20EAD37070BD94F0000F0FD101F0C8
:101380000046400041EB010111F4801F08BF013C01
:10139000F7D041EA060195F0000F18BF704703F03F
:1013A0000046520043EB030313F4801F08BF013DC6
:1013B000F7D043EA0603704794EA0C0F0CEA135582
:1013C00018BF95EA0C0F0CD050EA410618BF52EA3C
:1013D0004306D1D181EA030101F000414FF0000042
:1013E00070BD50EA410606BF1046194652EA430650
:1013F00019D094EA0C0F02D150EA013613D195EAC4
:101400000C0F05D152EA03361CBF104619460AD10B
:1014100081EA030101F0004141F0FE4141F4700115
:101420004FF0000070BD41F0FE4141F4780170BD05
:1014300070B54FF0FF0C4CF4E06C1CEA11541DBF6A
:101440001CEA135594EA0C0F95EA0C0F00F0A7F86C
:10145000A4EB050481EA030E52EA03354FEA013199
:1014600000F088804FEA03334FF0805545EA1313AC
:1014700043EA12634FEA022245EA111545EA106574
:101480004FEA00260EF000419D4208BF964244F10B
:10149000FD0404F5407402D25B084FEA3202B61A2A
:1014A00065EB03055B084FEA32024FF480104FF4FE
:1014B000002CB6EB020E75EB030E22BFB61A754672
:1014C00040EA0C005B084FEA3202B6EB020E75EB05
:1014D000030E22BFB61A754640EA5C005B084FEA6D
:1014E0003202B6EB020E75EB030E22BFB61A75463A
:1014F00040EA9C005B084FEA3202B6EB020E75EB45
:10150000030E22BFB61A754640EADC0055EA060E05
:1015100018D04FEA051545EA16754FEA06164FEA48
:10152000C30343EA52734FEAC2025FEA1C1CC0D1F4
:1015300011F4801F0BD141EA00014FF000004FF081
:10154000004CB6E711F4801F04BF01430020B4F142
:10155000FD0C88BFBCF5E06F3FF6AFAEB5EB030CFA
:1015600004BFB6EB020C5FEA500C50F1000041EBF7
:10157000045170BD0EF0004E4EEA113114EB5C04C4
:10158000C2BFD4EB0C0541EA045170BD41F4801197
:101590004FF0000E013C90E645EA060E8DE60CEA9F
:1015A000135594EA0C0F08BF95EA0C0F3FF43BAFBC
:1015B00094EA0C0F0AD150EA01347FF434AF95EA73
:1015C0000C0F7FF425AF104619462CE795EA0C0F57
:1015D00006D152EA03353FF4FDAE1046194622E724
:1015E00050EA410618BF52EA43067FF4C5AE50EAFE
:1015F00041047FF40DAF52EA43057FF4EBAE12E7EE
:101600004FF0FF3C06E000BF4FF0010C02E000BFCE
:101610004FF0010C4DF804CD4FEA410C7FEA6C5CB1
:101620004FEA430C18BF7FEA6C5C1BD001B050EA54
:10163000410C0CBF52EA430C91EA030F02BF90EA3F
:10164000020F0020704710F1000F91EA030F58BFFE
:10165000994208BF90422CBFD8176FEAE37040F060
:10166000010070474FEA410C7FEA6C5C02D150EAFE
:10167000013C07D14FEA430C7FEA6C5CD6D152EAB9
:10168000033CD3D05DF8040B704700BF844610467E
:1016900062468C461946634600E000BF01B5FFF77D
:1016A000B7FF002848BF10F1000F01BD4DF808ED4D
:1016B000FFF7F4FF0CBF012000205DF808FB00BF1E
:1016C0004DF808EDFFF7EAFF34BF012000205DF878
:1016D00008FB00BF4DF808EDFFF7E0FF94BF0120C5
:1016E00000205DF808FB00BF4DF808EDFFF7CEFFC6
:1016F00094BF012000205DF808FB00BF4DF808ED05
:10170000FFF7C4FF34BF012000205DF808FB00BFD5
:101710004FEA410C7FEA6C5C02D150EA013C0AD1ED
:101720004FEA430C7FEA6C5C02D152EA033C02D1DF
:101730004FF0000070474FF0010070474FEA410240
:1017400012F5001215D211D56FF47873B3EB625213
:1017500012D94FEAC12343F0004343EA505311F03A
:10176000004F23FA02F018BF404270474FF00000CC
:10177000704750EA013005D111F0004008BF6FF00A
:10178000004070474FF00000704700BF10B504469E
:101790000E4B18784FF47A73B3FBF0F30C4A1068D1
:1017A000B0FBF3F000F08EFC68B90F2C01D90120DA
:1017B0000AE0002221464FF0FF3000F03DFC054BCF
:1017C0001C60002000E0012010BD00BF00000020D0
:1017D000080000200400002008B50B4B1A6842F4F2
:1017E00000721A601A6842F480621A601A6842F441
:1017F00080721A60032000F00DFC0F20FFF7C6FF77
:1018000002F028FE002008BD003C0240034A116897
:10181000034B1B780B441360704700BFD4090020B2
:1018200000000020014B1868704700BFD409002059
:1018300038B50446FFF7F6FF0546B4F1FF3F02D086
:10184000044B1B781C44FFF7EDFF401BA042FAD36A
:1018500038BD00BF00000020002800F0A18038B58E
:10186000044690F82030D3B12268136843F0010396
:101870001360FFF7D7FF054623685A6812F0010F7F
:1018800010D1FFF7CFFF401B0A28F5D9636A43F454
:1018900000336362052384F82030012038BD02F054
:1018A0005BFAE1E71A6822F002021A60FFF7BAFF5A
:1018B000054623685A6812F0020F0DD0FFF7B2FFF9
:1018C000401B0A28F5D9636A43F400336362052399
:1018D00084F820300120E1E7227E012A3DD01A68F9
:1018E00022F080021A60637E012B3BD022681368CD
:1018F00023F040031360A37E012B39D022681368C4
:1019000023F020031360E37E012B37D02268136895
:1019100043F010031360237F012B35D02268136836
:1019200023F008031360637F012B33D02268136810
:1019300023F004031360A368E2681343226913438E
:10194000626913436268013A21681343CB61002046
:101950006062012384F82030A0E71A6842F0800218
:101960001A60C0E72268136843F040031360C2E7BF
:101970002268136843F020031360C4E722681368E9
:1019800023F010031360C6E72268136843F00803CE
:101990001360C8E72268136843F004031360CAE7C2
:1019A0000120704790F82030013BDBB2012B05D9B4
:1019B000436A43F4802343620120704710B5474BCC
:1019C000D3F8002242F00102C3F80022D3F800222B
:1019D00022F47C52C3F80022D3F80022486A42EA7B
:1019E0000022C3F800224A6902F01F02012000FA17
:1019F00002F2D3F81C026FEA020C20EA0200C3F8DC
:101A00001C02CB69CBB9354BD3F80C020CEA0000B1
:101A1000C3F80C028C884869D1F80CE044EA0E4403
:101A2000483043F830408C68088840EA04404C69EC
:101A300004F1480E03EBCE035860CB69012B1ED096
:101A40008B69002B35D12548D0F804320CEA03030A
:101A5000C0F804320B699BBB2048D0F814320CEA62
:101A60000303C0F814320B6A012B30D01B4AD2F8A2
:101A7000003223F00103C2F80032002010BD174BE2
:101A8000D3F80C021043C3F80C028C884869D1F8D3
:101A900000E044EA0E44483043F8304088894C69FD
:101AA000D1F808E040EA0E40483403EBC403586024
:101AB000C6E70A48D0F804321343C0F80432C9E735
:101AC0000648D0F814321343C0F81432CBE7034968
:101AD000D1F81C321A43C1F81C22C7E70064004049
:101AE00070B5044690F82050EDB2012D06D0436A3F
:101AF00043F4002343620125284670BD022380F889
:101B000020300268136823F001031360FFF78AFE98
:101B1000064623685B6813F0010F0CD0FFF782FEC6
:101B2000831B0A2BF5D9636A43F4003363620523F0
:101B300084F82030E0E700256562DDE730B590F8F5
:101B400020C00468A4680CF1FF3C5FFA8CFCBCF177
:101B5000010F6BD814F0E05F62D0C4F3016CBCF1EC
:101B6000020F05D9436A43F400034362012062E097
:101B7000012404FA0CF41C608B68002B3DD10D6825
:101B8000CB68046843EA45550CF118031B01E55086
:101B900003680C690CF1180E03EB0E135C600B7DEF
:101BA000012B35D0D17993791B0443EA0163517934
:101BB00043EA012314790168234301EB0C11C1F8B6
:101BC0008C31D17893781B0443EA0163517843EA5E
:101BD0000123117802680B4302EB0C12C2F8883122
:101BE00002680CF1180C4FEA0C1C52F80C3043F050
:101BF000010342F80C3000201DE04C6843EAC403A6
:101C0000CC6823430CF11804240105682B51BFE76D
:101C1000036803EB0E13596841F480715960C1E702
:101C2000436A43F400134362012004E0436A43F42F
:101C300080234362012030BD90F820C00CF1FF3CAE
:101C40005FFA8CFCBCF1010F00F29B8010B451B91B
:101C50000468E46814F0030F10D1436A43F40013DE
:101C6000436201207BE00468246914F0030F05D16E
:101C7000436A43F400134362012070E001F11B0446
:101C80002401D0F800C05CF8044004F0040494601F
:101C9000002C66D101F11B042401D0F800C05CF8CF
:101CA0000440640D1460046801F11B0C4FEA0C1C25
:101CB00054F80C4004F00204D4600468644464687E
:101CC00004F00F041461046864446468C4F30724D6
:101CD0009461046864446468240C5461026802EBF3
:101CE0000112D2F8B8211A70026802EB0112D2F880
:101CF000B821C2F307225A70026802EB0112D2F82F
:101D0000B821C2F307429A70026802EB0112D2F8BE
:101D1000B821120EDA70026802EB0112D2F8BC216F
:101D20001A71026802EB0112D2F8BC21C2F3072239
:101D30005A71026802EB0112D2F8BC21C2F30742C9
:101D40009A71026802EB0112D2F8BC21120EDA710C
:101D500089B90268D36843F02003D360002010BC27
:101D6000704701F11B042401D0F800C05CF8044066
:101D7000E408546097E70268136943F02003136195
:101D8000ECE7436A43F4802343620120704790F8F4
:101D90002030013BDBB2012B05D9436A43F4802399
:101DA0004362012070470268536919435161002062
:101DB000704770477047704770477047704770476B
:101DC000704770477047704770472DE9F84F0546D8
:101DD00003685C69D3F804809F68D3F80CB0D3F82B
:101DE00010A0D3F8189014F001063BD017F00106AC
:101DF00016D001229A6017F0020F08D117F0040FD5
:101E00000CD117F0080606D04FF4805608E0FFF713
:101E1000D0FF002604E0FFF7CFFF01E04FF400669B
:101E200017F4807F0DD02B684FF480729A6017F4FE
:101E3000007F40F0868017F4806F00F0868046F4C3
:101E4000005617F4803F0DD02B684FF480329A6013
:101E500017F4003F40F0838017F4802F00F0838058
:101E600046F4004614F0080F07D01BF0100F04D002
:101E700046F400762B681022DA6014F0040F02D0CA
:101E80001BF0080F79D114F0020F04D02B68DB6827
:101E900013F0030F78D114F0400F07D01AF0100F91
:101EA00004D046F480662B6810221A6114F0200FCB
:101EB00002D01AF0080F6BD114F0100F04D02B6869
:101EC0001B6913F0030F6AD114F4003F02D018F01D
:101ED000100F68D114F4803F02D018F0080F69D1B8
:101EE00014F4004F7AD018F0040F74D014F4807FEB
:101EF00004D019F0010F01D046F0010614F4007F60
:101F000004D019F0020F01D046F0020614F4806FDD
:101F100004D019F0040F01D046F0040614F4006F49
:101F200059D019F0700956D0B9F1400F65D058D882
:101F3000B9F1200F5ED0B9F1300F42D146F0200642
:101F400044E02846FFF736FF7BE717F4006F02D026
:101F500046F4804675E72846FFF72FFF71E72846CD
:101F6000FFF729FF7EE717F4002F02D046F48036F2
:101F700078E72846FFF722FF74E72B680822DA602B
:101F80002846FFF71CFF7EE7284600F0F1FF82E7B6
:101F90002B6808221A612846FFF713FF8CE72846B2
:101FA000FFF70EFF90E72B6810225A602846FFF7D4
:101FB00009FF8FE72B6808225A602846FFF703FFC6
:101FC0008EE7B9F1100F01D146F008062A6893692F
:101FD00023F0700393612B6804225A609EB9BDE818
:101FE000F88FB9F1500F0BD0B9F1600FEED146F474
:101FF0008076EBE746F01006E8E746F04006E5E7B6
:1020000046F08006E2E76B6A1E436E622846FFF7E1
:10201000DBFEE4E7074AD36823F4E0631B041B0CF0
:10202000000200F4E060034343F0BF6343F4003375
:10203000D360704700ED00E000B5194BDB68C3F3D7
:102040000223C3F1070CBCF1040F28BF4FF0040CAE
:1020500003F1040EBEF1060F18D9033B4FF0FF3E0B
:102060000EFA0CFC21EA0C0199400EFA03F322EA65
:102070000303194300280BDB0901C9B200F16040DA
:1020800000F5614080F800135DF804FB0023E5E7EC
:1020900000F00F000901C9B2024B1954F4E700BF68
:1020A00000ED00E014ED00E0002807DB00F01F0267
:1020B000400901239340024A42F82030704700BF94
:1020C00000E100E00138B0F1807F0BD24FF0E02357
:1020D0005861054AF02182F82310002098610722F8
:1020E0001A6170470120704700ED00E010B40368EA
:1020F000D9B210390B4AA2FB014212090A4CA25C68
:10210000C2655F2908D923F47F7323F003030433E6
:102110008365806D10BC704723F47F7323F0030345
:102120008365F6E7ABAAAAAAF8BA0008836A8269AF
:1021300092B9012B0AD0022B02D00BB100207047BC
:10214000C36A13F0807F28D100207047C36AB3F1BF
:10215000C07F24D000207047B2F5005F09D0022B69
:1021600025D9032B25D1C36A13F0807F23D100200A
:102170007047032B03D8DFE803F01404140A00208F
:102180007047C36A13F0807F0DD100207047C36A87
:10219000B3F1C07F09D000207047012070470120B3
:1021A00070470120704701207047012070470120CF
:1021B00070470020704701207047000070B504464A
:1021C000FFF730FB002C5BD00546022384F8353046
:1021D000002384F834302268136823F0010313606D
:1021E00023681A6812F0010F0AD0FFF71BFB431B8C
:1021F000052BF5D920236365032084F8350070BDD5
:102200001A68204810406168A2680A43E1680A43DE
:1022100021690A4361690A43A1690A43E1690A43E2
:10222000216A0A430243616A04291ED01A602668A3
:10223000756925F00705636A1D43042B07D1A36A5E
:102240001D43E36A1BB12046FFF770FF90B975612B
:102250002046FFF74BFFE26D3F2393408360002051
:102260006065012384F83530C9E7E16A206B0143DA
:102270000A43DBE740236365012084F83500BEE7AD
:102280000120BCE73F8010F0F0B583B00446002386
:102290000193724B1D68724BA3FB0535AD0A876D28
:1022A0003E68C26D08239340334210D003681A6819
:1022B00012F0040F0BD01A6822F004021A60C26DEB
:1022C00008239340BB60436D43F001034365E26D17
:1022D00001239340334209D02268526912F0800FE3
:1022E00004D0BB60636D43F002036365E26D0423B9
:1022F0009340334209D02268126812F0020F04D0D2
:10230000BB60636D43F004036365E26D102393408B
:10231000334224D02268126812F0080F1FD0BB602D
:1023200023681A6812F4802F0DD01B6813F4002F55
:1023300004D1236C9BB12046984710E0A36C73B185
:10234000204698470BE01A6812F4807F03D11A6880
:1023500022F008021A60236C0BB120469847E26D08
:1023600020239340334255D02268126812F0100F98
:1023700050D0BB6094F83530DBB2052B0ED023680B
:102380001A6812F4802F33D01B6813F4002F2AD15F
:10239000636C002B3ED0204698473BE022681368D0
:1023A00023F0160313602268536923F080035361FE
:1023B000236CA3B12268136823F008031360E26D55
:1023C0003F239340BB60012384F83530002384F819
:1023D0003430236D002B3FD0204698473CE0A36C5F
:1023E000002BE7D1EBE7E36BA3B12046984711E060
:1023F0001A6812F4807F09D11A6822F010021A605C
:10240000012384F83530002384F83430E36B0BB1BA
:1024100020469847636DFBB1636D13F0010F17D031
:10242000052384F835302268136823F00103136014
:10243000019B01330193AB4204D823681B6813F05E
:10244000010FF5D1012384F83530002384F83430AE
:10245000E36C0BB12046984703B0F0BD08000020A4
:10246000B5814E1B00230F2B00F2E48070B582B0C3
:1024700060E085685E000324B44025EA0405CC686A
:10248000B4402C438460456825EA02054C68C4F3D7
:1024900000129A402A4342605AE0DC08083450F89F
:1024A000246003F0070295000F22AA4026EA020EDC
:1024B0000A69AA4042EA0E0240F824205CE00722A2
:1024C00000E0002202FA0EF22A4302345A4D45F887
:1024D00024205A4A14686FEA0C0224EA0C054E685C
:1024E00016F4803F01D04CEA0405544C2560646822
:1024F00002EA04054E6816F4003F01D04CEA0405D8
:102500004E4C6560A46802EA04054E6816F4801F0C
:1025100001D04CEA0405494CA560E46822404D68AE
:1025200015F4001F01D04CEA0402444CE260013370
:102530000F2B7DD801229A400C6804EA020C32EA83
:102540000404F4D14C6804F00304013C012C90D93C
:102550004A6802F00302032A09D0C4685D0003221E
:10256000AA4024EA02048A68AA402243C2604A6858
:1025700002F00302022A90D004684FEA430E0322BD
:1025800002FA0EF224EA02044A6802F0030202FA96
:102590000EF2224302604A6812F4403FC7D0002284
:1025A0000192274A546C44F480445464526C02F4FF
:1025B00080420192019A9C08A51C1F4A52F825509E
:1025C00003F003024FEA820E0F2202FA0EF225EA0E
:1025D00002051C4A90423FF474AF02F580629042BB
:1025E0001AD002F58062904218D002F580629042C3
:1025F00016D002F58062904214D002F580629042BB
:1026000012D002F58062904210D002F580629042B2
:102610003FF455AF082255E7012253E7022251E764
:1026200003224FE704224DE705224BE7062249E744
:1026300002B070BD704700BF00380140003C01404F
:1026400000380240000002400AB18161704709046D
:1026500081617047002800F0E08170B582B00446C7
:10266000036813F0010F3BD09F4B9B6803F00C03F2
:10267000042B2CD09C4B9B6803F00C03082B21D01F
:102680006368B3F5803F4FD0B3F5A02F52D0964B7F
:102690001A6822F480321A601A6822F480221A60C2
:1026A0006368002B50D0FFF7BDF805468E4B1B68C2
:1026B00013F4003F14D1FFF7B5F8401B6428F5D997
:1026C0000320B1E1884B5B6813F4800FD8D0864BB0
:1026D0001B6813F4003F03D06368002B00F09F8158
:1026E000236813F0020F54D07F4B9B6813F00C0F3C
:1026F0003ED07D4B9B6803F00C03082B33D0E3687E
:10270000002B68D0794B01221A60FFF78BF8054641
:10271000754B1B6813F0020F54D1FFF783F8401B71
:102720000228F5D903207FE16F4A136843F4803310
:102730001360B5E76C4B1A6842F480221A601A687D
:1027400042F480321A60ABE7FFF76CF80546664B3F
:102750001B6813F4003FC3D0FFF764F8401B6428E4
:10276000F5D9032060E1604B5B6813F4800FC6D19C
:102770005D4B1B6813F0020F03D0E368012B40F0A0
:102780005081594A136823F0F803216943EAC103D1
:102790001360236813F0080F42D063696BB3534B87
:1027A0000122C3F8802EFFF73DF805464E4B5B6FC4
:1027B00013F0020F34D1FFF735F8401B0228F5D98A
:1027C000032031E1484A136823F0F803216943EA02
:1027D000C1031360DDE7454B00221A60FFF722F8C2
:1027E0000546414B1B6813F0020FD2D0FFF71AF8D1
:1027F000401B0228F5D9032016E13C4B0022C3F808
:10280000802EFFF70FF80546374B5B6F13F0020F72
:1028100006D0FFF707F8401B0228F5D9032003E193
:10282000236813F0040F77D02F4B1B6C13F0805FDD
:1028300033D1002301932C4B1A6C42F080521A645E
:102840001B6C03F080530193019B0125284B1B68EF
:1028500013F4807F23D0A368012B34D0052B38D00C
:10286000214B1A6F22F001021A671A6F22F004023C
:102870001A67A368002B3DD0FEF7D4FF06461A4B1B
:102880001B6F13F0020F46D1FEF7CCFF801B41F205
:1028900088339842F3D90320C6E00025D6E7144ACE
:1028A000136843F480731360FEF7BCFF0646104BB9
:1028B0001B6813F4807FCED1FEF7B4FF801B022883
:1028C000F5D90320B0E0084A136F43F00103136702
:1028D000CFE7054B1A6F42F004021A671A6F42F0F5
:1028E00001021A67C5E700BF0038024000004742F6
:1028F00000700040FEF796FF0646524B1B6F13F028
:10290000020F08D0FEF78EFF801B41F288339842F9
:10291000F3D9032088E0EDB9A369002B00F0838090
:10292000484A926802F00C02082A51D0022B17D0B4
:10293000454B00221A66FEF775FF0446414B1B68A3
:1029400013F0007F42D0FEF76DFF001B0228F5D97F
:10295000032069E03B4A136C23F080531364DBE7E8
:10296000394B00221A66FEF75DFF0546354B1B68A2
:1029700013F0007F06D0FEF755FF401B0228F5D963
:10298000032051E0E369226A1343626A43EA821337
:10299000A26A5208013A43EA0243E26A43EA026346
:1029A000284A5360284B01221A66FEF73BFF044673
:1029B000244B1B6813F0007F06D1FEF733FF001B8A
:1029C0000228F5D903202FE000202DE000202BE085
:1029D000012B2BD01B4B5B6803F48001E269914211
:1029E00026D103F03F02216A8A4223D1616A47F669
:1029F000C0721A40B2EB811F1ED103F44031A26AAB
:102A00005208013AB1EB024F18D103F07063E26A49
:102A1000B3EB026F14D1002006E0012070470120C3
:102A200002E0012000E0002002B070BD0120FBE7C1
:102A30000120F9E70120F7E70120F5E70120F3E79E
:102A40000120F1E7003802400000474208B5254B5D
:102A50009B6803F00C03042B3FD0082B3FD1214B84
:102A60005A6802F03F025B6813F4800F12D01D4BCE
:102A70005968C1F388111C480023A1FB0001FEF72F
:102A8000C5F8184B5B68C3F3014301335B00B0FB2F
:102A9000F3F025E0134B5968C1F3881C4FEA4C1141
:102AA000B1EB0C006EEB0E0E4FEA8E1343EA90630F
:102AB0008101091A63EB0E03DB0043EA5173C9007D
:102AC00011EB0C0C43F10003990200234FEA8C2018
:102AD00041EA9C51FEF79AF8D3E7034800E0034827
:102AE00008BD00BF00380240001BB7000024F400FE
:102AF000002800F09B8070B50D4604464F4B1B68C4
:102B000003F007038B4208D2CBB24C4A1370136810
:102B100003F007038B4240F08B80236813F0020F11
:102B200017D013F0040F04D0454A936843F4E053E0
:102B30009360236813F0080F04D0414A936843F46C
:102B4000604393603E4A936823F0F003A1680B430F
:102B50009360236813F0010F32D06368012B21D0FA
:102B60009A1E012A25D9364A126812F0020F61D046
:102B700033498A6822F0030213438B60FEF752FE4A
:102B800006462F4B9B6803F00C036268B3EB820F81
:102B900016D0FEF747FE801B41F288339842F0D9E9
:102BA000032042E0264A126812F4003FE0D10120DF
:102BB0003BE0234A126812F0007FD9D1012034E0B3
:102BC0001E4B1B6803F00703AB4207D9EAB21B4B4D
:102BD0001A701B6803F00703AB422DD1236813F072
:102BE000040F06D0164A936823F4E053E1680B43C0
:102BF0009360236813F0080F07D0114A936823F4F9
:102C00006043216943EAC1039360FFF71FFF0C4B48
:102C10009B68C3F303130B4AD35CD8400A4B18607C
:102C20000A4B1868FEF7B2FD002070BD0120704706
:102C30000120FAE70120F8E70120F6E7003C024016
:102C40000038024008BB00080800002004000020F3
:102C5000014B1868704700BF0800002008B5FFF757
:102C6000F7FF044B9B68C3F38223034AD35CD8402D
:102C700008BD00BF0038024018BB000808B5FFF7C8
:102C8000E7FF044B9B68C3F34233034AD35CD8404D
:102C900008BD00BF0038024018BB000838B5044624
:102CA0000268136923F44053C1680B4313618368BE
:102CB0000269134342691343C2691A430168CB682E
:102CC00023F4164323F00C031343CB6002685369CB
:102CD00023F4407381690B4353610368314A934283
:102CE00006D002F58062934202D0FFF7B7FF01E001
:102CF000FFF7C4FFE369B3F5004F29D000210318A3
:102D000049411B1841F10001C90041EA5371DB0040
:102D1000181863684FEA83024FEA937341F1000188
:102D2000FDF774FF204DA5FB00325109642303FB1E
:102D300011031B013233A5FB03235B0903F0F002EF
:102D400002EB011203F00F03216813448B6038BDBE
:102D50000023021843EB0301121841F10001C900DE
:102D600041EA5271D200101841F1000162689218D4
:102D70005B41FDF74BFF0C4DA5FB0032510964236D
:102D800003FB1103DB003233A5FB03235B095A006D
:102D900002F4F87202EB011203F0070321681344F6
:102DA0008B60D4E7001001401F85EB5158B310B57C
:102DB000044690F83D300BB3242384F83D3022685C
:102DC000D36823F40053D3602046FFF767FF2268DF
:102DD000136923F4904313612268536923F02A0393
:102DE00053612268D36843F40053D3600020206409
:102DF000202384F83D3084F83E3010BD80F83C300C
:102E000001F008FCD8E701207047000030B58BB016
:102E1000002401940294082507954FF4007503954A
:102E20000594069404128DF804408DF805000812EC
:102E30008DF806008DF8071011128DF808108DF826
:102E400009201A128DF80A208DF80B3009AB01AA5F
:102E500003A90248FEF772FE0BB030BD340F00200C
:102E600010B58AB0082405940D9C019400240494A4
:102E700003948DF81C0008128DF81D008DF81E10AB
:102E800011128DF81F108DF820201A128DF82120B4
:102E90008DF822300C9B8DF8233009AB07AA01A9CD
:102EA0000248FEF74BFE0AB010BD00BF5C0F0020C9
:102EB00000B58BB00023059306930122079200937F
:102EC000019302930393049308920E230993694696
:102ED0000C48FEF767FD58B90A48FEF701FE50B9E5
:102EE00002210848FEF753FF40B90BB05DF804FB20
:102EF00001F014F9F0E701F011F9F1E701F00EF932
:102F0000F3E700BF340F002000B58BB00E2205920E
:102F100000230693012107910093019302930393E9
:102F200004930891099269460C48FEF73BFD58B995
:102F30000A48FEF7D5FD50B902210848FEF727FFE1
:102F400040B90BB05DF804FB01F0E8F8F0E701F0E0
:102F5000E5F8F1E701F0E2F8F3E700BF5C0F0020CD
:102F6000024B00221A605A60704700BFD809002047
:102F700038B50446274B984207D0274B984235D0A6
:102F800002212046FEF703FF38BD244D244B2A467C
:102F90000021FEF751FE2B68DAB2042A12D820492C
:102FA0008A78120212B2C878DBB202431D4820F8B8
:102FB00013200A78120212B249780A431A4921F8FA
:102FC0001320DDE7043AD2B215498B781B021BB2FD
:102FD000C8780343154820F812300B781B021BB247
:102FE00049780B43124921F81230C9E7114D124BB1
:102FF0002A460021FEF720FE2A6840F201339A4259
:1030000004D002212046FEF7C2FEBDE7FFF7A8FF6D
:10301000B6E700BF340F00205C0F0020E809002055
:10302000E0090020280A0020100A00201C0A0020C5
:10303000040A0020340A0020D809002010B4164BDE
:103040001B685C6944F040045C61DC6844F0100477
:10305000DC60124B1C68236823F00103236003E04B
:103060001C6824F001041C600C4B1B681C6814F0E5
:10307000010FF5D10A4C9C60D86019615A601A683A
:1030800042F480221A60054B1A68136843F001036A
:10309000136010BC704700BFA8100020880F0020EC
:1030A0000410014008B5034863228118FFF7C6FFEA
:1030B00008BD00BF5C0A00202DE9F04383B0002367
:1030C00000E00133622B1DDC1946C25C0D2AF8D1E9
:1030D000C21852780A2AF4D1482BF2DCC218927E28
:1030E0000A2AEED10144CA7E0D2AEAD10022172A0B
:1030F000E7DC9918014491F802C0394901F802C08F
:103100000132F4E7374B1B68012B64DD344C364940
:10311000E068FDF743FC0646344D686027682F6081
:1031200031492069FDF73AFC0446A8603049384629
:10313000FDF734FC2F49FDF77DFBFDF7C5F980460F
:10314000894607F031FBFDF717FA2B49FDF772FBB3
:1031500001463046FDF766FA064668604046494635
:1031600007F0D2FAFDF708FA2349FDF763FB0146A1
:103170002148FDF755FA01462046FDF753FAA860AD
:1031800000F10044AC6018493046FDF753FBFDF7F1
:1031900017FD0546194B186013492046FDF74AFBF9
:1031A000FDF70EFD0446164B186016493846FDF72C
:1031B00041FBFDF705FD0346134A106040F2013262
:1031C000019200220092224629464120FFF748FE44
:1031D00003B0BDE8F0830133024A136096E700BFF5
:1031E000240B0020400B002000007A44500A0020ED
:1031F00000003443DA0F4940BA4E633E480B0020CA
:103200004C0B00200000C8423C0B002000B583B0EE
:103210002E4B1B681A6812F0200F09D00022009272
:103220001A6800925B680093009B03B05DF804FB92
:10323000274A126812F0100FF7D0002201921A6884
:1032400001925B680193019B224B1B681A6812F480
:10325000002F1CD11A6822F001021A601D48026872
:103260005368C3F163039BB21B490B806321516018
:10327000116841F40021116001680A6842F00102FE
:103280000A60002BD1D01548FFF716FFCDE71A686A
:1032900022F001021A600F4908684368C3F1630312
:1032A0000D4A1380632343600D48836A23F400238F
:1032B000836209680B6843F001030B601388002BDD
:1032C000B3D00848FFF7F8FEAFE700BFA810002012
:1032D00000100140880F0020440B00205C0A0020F1
:1032E00000600240BF0A0020F0B587B007460D46D7
:1032F0001446294B00221A605A601A81FDF792F990
:10330000064626492046FDF795FA04460146304612
:10331000FDF786F9049039462846FDF781F9054600
:1033200001462046FDF77EF9059021463046FDF71F
:1033300079F9039021462846FDF772F9029001249D
:1033400003E0E0B200F050FA0134042C14DC14491C
:1033500006AB03EB840353F8140CFDF71FFB114974
:10336000FDF768FA1049FDF719FB014614F0010F4B
:10337000E7D100F10041E4E70748B0F90830B0F9BF
:103380000620B0F90410B0F90200FFF73FFD0A2053
:10339000FEF74EFA07B0F0BDF80B00200000204207
:1033A0000AD7F3400000F041DA0F49402DE9F04F11
:1033B00083B082460C4690462A492B4B1868FDF78D
:1033C000EDFA2A49FDF736FA06462046FDF77CF865
:1033D00004460D463046FDF777F806460F4607F0DF
:1033E000E3F9CDE9000102460B4620462946FDF7E8
:1033F000F5FEFDF7C1F881465046FDF765F88246B7
:103400008B463046394607F07FF906460F4602469E
:103410000B4650465946FDF7E1FEFDF7ADF8014673
:103420004846FDF7FFF8814632463B46204629468E
:10343000FDF7D4FEFDF7A0F8044652465B46DDE9F1
:103440000001FDF7CBFEFDF797F801462046FDF79A
:10345000E7F8014609F100404246FFF745FF03B097
:10346000BDE8F08F00003443500A0020DA0F4940D5
:10347000074B084A1A60084A5A60084A9A60084A84
:10348000DA62084A1A63084A9A62084A5A6370471D
:10349000880B0020004887456F12833B0020CB45F6
:1034A00000007A4500401C460AD7233C000020411A
:1034B000074B084A1A60084A5A60084A9A60084A44
:1034C000DA62084A1A63084A9A62084A5A637047DD
:1034D000C00B0020004887456F12833B0020CB457E
:1034E00000007A4500401C460AD7233C00002041DA
:1034F000084B4FF07C521A6000225A60064A9A60CC
:10350000064ADA62064A1A634FF080429A62054A16
:103510005A637047500B0020CDCCCC3E0000C8420F
:1035200000401C4600002041F8B50C460F6A3946A1
:103530006068FDF77FF92169FDF774F805462061A1
:10354000266B3146FDF732FB18B3266121683846F9
:10355000FDF770F90646E060A568616A3846FDF738
:103560005FF801462846FDF765F905466061216967
:103570003046FDF757F801462846FDF753F8054653
:10358000A061E66A3146FDF711FB60B1A661A06952
:10359000F8BD06F1004631462846FDF7E9FA002855
:1035A000D4D02661D2E706F1004631462846FDF721
:1035B000DFFA0028EBD0A661E9E700002DE9F0472B
:1035C00081460D461646294C236A6362DFF8A0A0A7
:1035D000DAF80410FDF724F82062DFF89880D8F8B4
:1035E0002030C8F82430DAF808102846FDF718F81B
:1035F000C8F82000204F3B6A7B62DAF800103046A2
:10360000FDF70EF8386221464846FFF78DFF8146E8
:1036100041462846FFF788FF054639463046FFF702
:1036200083FF0646206A20F00040A16AFDF7A0FA59
:1036300008B14FF000090F4B186A20F00040996A5A
:10364000FDF796FA00B100250B4B186A20F00040F8
:10365000996AFDF78DFA00B1002605F10041324666
:103660004846FFF7A3FEBDE8F08700BF880B0020A7
:10367000500A0020C00B0020500B002008B5FFF7B7
:10368000F7FEFFF715FFFFF733FF08BD0C4BC0EB4C
:10369000C00103EBC102DFF82CC043F831C00A4976
:1036A00051600A4991604FF48041D16242F2107139
:1036B00011630A2191624FF4FA535363704700BFBC
:1036C000040C002000006040CDCC4C3D9A99993EFE
:1036D0002DE9F8430C46C1EBC103424D05EBC30590
:1036E0006E68D5F820804046FDF750F80746014641
:1036F0003046FDF79FF82969FCF794FF06462861DC
:10370000D5F830904846FDF741F805460146304669
:10371000FDF74CFA002841D0C4EBC403314A02EB58
:10372000C3031D612F4BC4EBC40203EBC20553F866
:1037300032103846FDF77EF80746E860AE68686AE2
:10374000A8EB0000FDF722F83146FDF773F80646B6
:10375000686129693846FCF765FF01463046FCF789
:1037600061FF0646A861EF6A3846FDF70FF8054687
:1037700001463046FDF71AFA10B3C4EBC403194AE8
:1037800002EBC3039D61C4EBC404164901EBC404FE
:10379000A069FDF715FA00B2BDE8F883C9F1000091
:1037A000FCF7F4FF054601463046FDF7E1F9002835
:1037B000B8D0C4EBC4030B4A02EBC3031D61B1E7ED
:1037C0007842FCF7E3FF054601463046FDF7D0F9A5
:1037D0000028D8D0C4EBC403024A02EBC3039D61A6
:1037E000D1E700BF040C002070B504460E46C0EBC4
:1037F000C003134D05EBC3052B6A6B62114B33F904
:103800001000FCF7C3FF01463046FCF709FFFDF747
:10381000D7F928620028B8BF4042AB6A984206DA5E
:10382000A869FDF7CDF9084B23F8140070BD2146B7
:103830003046FFF74DFF044B23F81400F6E700BFB6
:10384000040C0020280A0020F80B002010B50124E9
:1038500003E0E0B2FFF71AFF0134042CF9DDFFF7B3
:1038600027FB10BD10B4164B1B685C6944F0400484
:103870005C61DC6844F01004DC60124B1C68236857
:1038800023F00103236003E01C6824F001041C60A2
:103890000C4B1B681C6814F0010FF5D10A4C9C609E
:1038A000D86019615A601A6842F480221A60054B88
:1038B0001A68136843F00103136010BC704700BF1F
:1038C000EC100020481000200448004008B50348D0
:1038D00024228118FFF7C6FF08BD00BFDC0D0020C1
:1038E00000286CD00346002969D030B504784278AE
:1038F00044EA0224C4F30A040C8090F801E08278C0
:103900004FEADE0E4EEA421ECEF30A0EA1F802E0A6
:103910008278C078920942EA8002187942EA8022CD
:10392000C2F30A028A8018795D79400840EAC5101E
:10393000C0F30A00C88093F805C0CCF3011C81F8DD
:103940000BC093F805C04FEA9C1C81F80AC093F89D
:1039500006C0DD794CEA052CA1F80CC093F808C02C
:103960005D7A4CEA052CA1F80EC093F80AC0DD7A06
:103970004CEA052CA1F810C01D7B8D745D7BCD74C5
:1039800093F80EC0DD7B4CEA052CA1F814C093F827
:1039900010C05B7C4CEA03231BB20B81A4F580644E
:1039A0000C80AEF5806EA1F802E0A2F580628A80FC
:1039B000A0F58060C880A3F580630B8130BD70479F
:1039C00000B583B02F4B1B681A6812F0200F09D086
:1039D000002200921A6800925B680093009B03B07B
:1039E0005DF804FB284A126812F0100FF7D000228D
:1039F00001921A6801925B680193019B234B1B683B
:103A00001A6812F4002F1DD11A6822F001021A6000
:103A10001E4802685368C3F124039BB21C490B8003
:103A200024215160116841F40021116001680A6885
:103A300042F001020A60122BD1D116491648FFF755
:103A40004FFFCCE71A6822F001021A600F4908689C
:103A50004368C3F124030E4A1380242343600F48B4
:103A6000836A23F40023836209680B6843F001032F
:103A70000B601388122BB2D106490948FFF730FFBB
:103A8000ADE700BFEC1000200048004048100020C7
:103A9000240E0020C40D0020DC0D00200060024038
:103AA000000E002070B53D4BDB7A012B1DD0032B9F
:103AB0004BD0022B32D1394DB5F90400FCF766FE2C
:103AC0003749FCF7B7FE0646B5F90600FCF75EFE7F
:103AD0003349FCF7AFFE0446B5F90000FCF756FE8B
:103AE0003049FCF7A7FE054618E02C4DB5F9040057
:103AF000FCF74CFE2C49FCF79DFE0646B5F9060086
:103B0000FCF744FE2849FCF795FE0446B5F9000091
:103B1000FCF73CFE2349FCF78DFE054600213046AC
:103B2000FDF71CF848B100212046FDF717F820B139
:103B300000212846FDF712F808BB05F1004204F108
:103B400000413046FFF7D0FB70BD144DB5F90400BD
:103B5000FCF71CFE1549FCF76DFE0646B5F906009C
:103B6000FCF714FE1149FCF765FE0446B5F90000A8
:103B7000FCF70CFE0B49FCF75DFE0546CEE7012283
:103B8000042ADADCC2EBC201094B03EBC1030021BA
:103B900019615961D96099610132F1E7C40D0020C2
:103BA0007CF04140CA261B3E9B6CF2406DB2A9409E
:103BB000040C0020034B1A68536943F080035361DF
:103BC000704700BFA810002010B42E4B1A6813686D
:103BD00023F00103136003E01A6822F001021A6067
:103BE000284B1B681A6812F0010FF5D1264A9A601B
:103BF00002F5AA325432934218D9583A4FF0006471
:103C0000D460224A934227D9583A4FF08064D46056
:103C1000D86059601E4A11684A6942F080024A61C0
:103C20001A6842F001021A6010BC7047194A9342A8
:103C300005D902F552724FF000649460E1E7164A2C
:103C4000934204D9583A4FF00064D460D9E7134A3C
:103C50004FF000649460D4E70E4A934205D902F510
:103C600052724FF080649460D2E70B4A934204D9B9
:103C7000583A4FF08064D460CAE7084A4FF0806435
:103C80009460C5E7E80F002004100140586402402A
:103C9000A8100020B8600240586002400060024056
:103CA0000FB410B502AA52F8041B084B1A60084C56
:103CB000204600F045FE81B2064B19802046FFF7F2
:103CC00083FFBDE8104004B0704700BF280E0020FD
:103CD000300E00202C0E002008B50D480D4B03605F
:103CE0000323436000238360C3604FF4102202610A
:103CF0004FF400124261037643768376C3760377EE
:103D00004377FDF7A9FD00B908BD00F007FAFBE70E
:103D1000340F00200064004008B50D480D4B0360CF
:103D20000323436000238360C3604FF410220261C9
:103D30004FF400124261037643768376C3760377AD
:103D40004377FDF789FD00B908BD00F0E7F9FBE70F
:103D50005C0F00200068004010B58AB00023059376
:103D6000069307930893099303683D4A934204D04E
:103D70003C4A934234D00AB010BD3B4A1368013329
:103D80001360012B1FD000240194384B1A6B42F0B2
:103D900008021A631B6B03F008030193019B0323C2
:103DA00005930222069208930923099305A9304836
:103DB000FEF758FB224621461420FEF73DF9142059
:103DC000FEF772F9D7E700230093284B1A6C42F0F4
:103DD00000721A641B6C03F000730093009BD2E71F
:103DE00000230293214B1A6C42F080621A641B6C10
:103DF00003F080630293029B1B4A13680133136034
:103E0000012B20D000240494184B1A6B42F00202BC
:103E10001A631B6B03F002030493049B6023059356
:103E200002230693032308930923099305A9114844
:103E3000FEF718FB224621464020FEF7FDF8402001
:103E4000FEF732F997E700230393084B1A6C42F010
:103E500000721A641B6C03F000730393039BD1E799
:103E60000064004000680040300F0020003802402D
:103E7000000C02400004024010B582B000240094FF
:103E8000164B1A6B42F400121A631A6B02F40012FA
:103E90000092009A01941A6B42F480021A631B6B21
:103EA00003F480030193019B224621460C20FEF778
:103EB000C3F80C20FEF7F8F8224621463A20FEF718
:103EC000BBF83A20FEF7F0F8224621464620FEF7DE
:103ED000B3F84620FEF7E8F802B010BD0038024003
:103EE000F0B58BB0002405940694079408940994C7
:103EF00000942B4B1A6B42F002021A631A6B02F009
:103F000002020092009A01941A6B42F001021A63B5
:103F10001A6B02F001020192019A02941A6B42F0AC
:103F200008021A631A6B02F008020292029A0394C2
:103F30001A6B42F004021A631A6B02F00402039235
:103F4000039A04941A6B42F080021A631B6B03F00D
:103F500080030493049B134F22464FF4805138464C
:103F6000FEF772FB104D22464FF480412846FEF7C3
:103F70006BFB4FF480530593012606960794089433
:103F800005A93846FEF76EFA4FF48043059306966E
:103F90000794089405A92846FEF764FA0BB0F0BD13
:103FA00000380240001C0240000C0240044B054A4D
:103FB0009362054A9362054B4FF080429A627047C4
:103FC000CDCC4C3E880B0020C00B0020500B0020B5
:103FD000044B054A9362054A9362054B054A9A626F
:103FE000704700BF0AD7233C880B0020C00B00207D
:103FF000500B00200000A040024B034AD362034A4A
:10400000D362704700007A45880B0020C00B002067
:10401000024B034AD362034AD36270470000FA445A
:10402000880B0020C00B002070B504460D461646D4
:104030000AE01E4B9B7A032B2ED0022B32D0324645
:1040400029462046FFF7BAFA194B59682046FCF773
:10405000E7FA20F00040174B996AFCF7A7FD00280B
:10406000E7D1134B99682846FCF7DAFA20F00040B4
:10407000114B996AFCF79AFD0028DAD10C4B1968AC
:104080003046FCF7CDFA20F000400C4B996AFCF763
:104090008DFD0028CDD170BD002002460146FFF7FE
:1040A00023F9D1E7FFF7FEFCCEE700BFC40D0020E7
:1040B000500A0020880B0020C00B0020500B00206D
:1040C00038B50546012405E0002002460146FFF709
:1040D0000BF901340D4A82FB0532EB17C3EBA20347
:1040E000A342F1DA0A4A0023D36013615361D3611A
:1040F0009361084AD36013615361D3619361064AA7
:10410000D36013615361D361936138BD676666669E
:10411000880B0020C00B0020500B002072B6FEE779
:1041200000B595B03022002108A800F0B7FB0023AD
:10413000039304930593069307930193204A116C0C
:1041400041F080511164126C02F080520192019A88
:1041500002931C4B1A6842F480421A601B6803F4F5
:1041600080430293029B012308934FF48033099309
:1041700002230E934FF480020F9206221092A8227F
:10418000119212930423139308A8FEF763FA98B9C7
:104190000F23039302230493002305934FF4A053AA
:1041A00006934FF480530793052103A8FEF7A0FC64
:1041B00020B915B05DF804FBFFF7B0FFFFF7AEFFC5
:1041C00000380240007000402DE9F047FDF704FB85
:1041D000FFF7A6FFFFF784FEFFF74EFEFFF77CFD1B
:1041E000FFF79AFD00F0FAF900F0DEF9FFF72EFB79
:1041F000FFF76CFBFEF756FFFEF786FEFFF73EFA71
:10420000FFF7D8FC0022834B1A604FF4805182489C
:10421000FEF71AFA04E0002002460146FFF764F8B0
:104220007C4B1B68002BF6DD01224FF480517A484D
:10423000FEF70AFAFFF7BAFE0024784D2246294617
:104240002046FFF7F1FEFFF7E3FE754E22462946B2
:104250003046FFF7E9FEFFF7CFFEFFF7B9FEDFF8C4
:10426000C491224649463046FFF7DEFE4FF47A708D
:10427000FFF726FFFFF79AFE224629463046FFF752
:10428000D3FEFFF7A5FEDFF8A081684F684E4246D7
:1042900039463046FFF7C8FE4FF47A70FFF710FF3B
:1042A000FFF784FEDFF88CA1224629465046FFF72F
:1042B000BBFEFFF78DFE224649465046FFF7B4FE8F
:1042C0004FF47A70FFF7FCFEFFF770FE2246294696
:1042D0005046FFF7A9FEFFF77BFE424639463046BF
:1042E000FFF7A2FE4FF47A70FFF7EAFEFFF75EFEDB
:1042F000DFF844A1224629465046FFF795FEFFF716
:1043000067FE224649465046FFF78EFE4FF47A700C
:10431000FFF7D6FEFFF74AFE224629465046FFF732
:1043200083FEFFF755FE424639463046FFF77CFED6
:104330004FF47A70FFF7C4FEFFF738FEDFF8FCA0F9
:10434000224629465046FFF76FFEFFF741FE224600
:1043500049465046FFF768FE4FF47A70FFF7B0FE0B
:10436000FFF724FE224629465046FFF75DFEFFF781
:104370002FFE424639463046FFF756FE4FF47A701C
:10438000FFF79EFE2E4A2F492F48FFF74DFE4FF4B0
:104390007A70FFF795FE424639463046FFF744FEF5
:1043A0004FF47A70FFF78CFEFFF700FE2246294695
:1043B0002046FFF739FEFFF70BFE22462146204636
:1043C000FFF732FE4FF47A70FFF77AFE08E0002024
:1043D00002460146FEF788FF1C4BDB7A032B0AD00E
:1043E0001A4B9B7A012BFBD0032BF0D0022BF7D179
:1043F000FFF758FBF4E70A20FDF71AFA134BDB7AB4
:10440000022BEDD11248FFF74BFC0A20FDF710FA02
:10441000E6E700BF400B0020001C0240333353404E
:10442000CDCC2CC0E17AB43F0000B842000060401F
:1044300085EB11BF000040C0333353C0666666C0D1
:104440000000B4C2333373409A99A9C0C40D002050
:1044500000BB000882B0002100910B4B5A6C42F463
:1044600080425A645A6C02F480420092009A019190
:104470001A6C42F080521A641B6C03F08053019353
:10448000019B02B0704700BF00380240FEE7FEE724
:10449000FEE7FEE7FEE770477047704708B5FDF797
:1044A000B5F908BD08B50248FDF7EEFE08BD00BF2E
:1044B0004810002008B50248FDF787FC08BD00BF82
:1044C000340F002008B50248FDF7DEFE08BD00BF2E
:1044D000880F002008B50248FDF777FC08BD00BF33
:1044E0005C0F002008B50248FDF7CEFE08BD00BFF6
:1044F000E80F00200120704708B500F0A5F9162349
:1045000003604FF0FF3008BD08B54FF0FF31FFF7F3
:10451000F3FFFEE770B50C461646002506E0AFF344
:104520000080214601F8010B01350C46B542F6DB4F
:10453000304670BD70B50C461646002504E014F8F0
:10454000010BAFF300800135B542F8DB304670BD9A
:1045500008B503460B4A126842B10A4A1068034480
:104560006A46934206D8074A136008BD054A0649C1
:104570001160F2E700F068F90C2303604FF0FF30A0
:10458000F3E700BF840F0020781100204FF0FF30C8
:1045900070474FF400534B60002070470120704774
:1045A000002070477047000008B50A480A4B0360B6
:1045B0004FF4E133436000238360C36003610C2246
:1045C00042618361C361FEF7F1FB00B908BDFFF7EB
:1045D000A5FDFBE7A81000200010014008B50A481F
:1045E0000A4B03600A4B436000238360C36003618E
:1045F0000C2242618361C361FEF7D8FB00B908BD9C
:10460000FFF78CFDFBE700BFEC10002000480040E6
:10461000A08601002DE9F0418AB0044600230593ED
:1046200006930793089309930368664A934205D05B
:10463000654A93427FD00AB0BDE8F081002500951D
:10464000624B5A6C42F010025A645A6C02F010022B
:104650000092009A01951A6B42F002021A631A6BDB
:1046600002F002020192019A02951A6B42F00102D5
:104670001A631B6B03F001030293029B80230593D3
:104680004FF00208CDF818800327089707260996EF
:1046900005A94F48FDF7E6FE4FF400730593CDF8EA
:1046A000188007950897099605A94A48FDF7DAFE8C
:1046B00049484A4B03604FF00063436040238360E6
:1046C000C5604FF48063036145618561C5614FF446
:1046D000003303624562FDF771FD30BB3E4B6363FF
:1046E0009C633F483F4B03604FF0006343600023EF
:1046F0008360C3604FF480620261436183614FF461
:104700008072C2614FF4803202624362FDF756FD4F
:1047100070B9334BA3639C63002211462520FDF73B
:104720008BFC2520FDF7C0FC85E7FFF7F7FCD5E7FC
:10473000FFF7F4FCEDE700250395244B1A6C42F4D7
:1047400080221A641A6C02F480220392039A049560
:104750001A6B42F004021A631B6B03F00403049308
:10476000049B4FF4406305930223069303230893AD
:104770000723099305A91C48FDF774FE1B481C4B31
:1047800003604FF0006343608560C5604FF4806351
:10479000036145618561C5614FF440330362456241
:1047A000FDF70CFD58B9114BA3639C630022114621
:1047B0002720FDF741FC2720FDF776FC3BE7FFF7BC
:1047C000ADFCF0E700100140004800400038024016
:1047D0000004024000000240E80F0020B8640240DC
:1047E000880F00204064024000080240481000206A
:1047F00028600240DFF834D00D480E490E4A0023ED
:1048000002E0D458C4500433C4188C42F9D30B4A84
:104810000B4C002301E013600432A242FBD3FFF7EC
:10482000C1FE00F017F8FFF7CFFC70470000022030
:1048300000000020B8090020C4C00008B80900200A
:1048400078110020FEE70000014B1868704700BF98
:104850000C00002070B50D4E0D4D761BB61006D025
:10486000002455F8043B01349847A642F9D1094E7B
:10487000094D761B07F032F9B61006D0002455F822
:10488000043B01349847A642F9D170BDB8C0000876
:10489000B8C00008C0C00008B8C00008830730B521
:1048A00048D0541E002A3FD0CAB2034601E0013C62
:1048B0003AD303F8012B9D07F9D1032C2DD9CDB2A2
:1048C00045EA05250F2C45EA054536D9A4F1100225
:1048D00022F00F0C03F1200EE6444FEA121C03F104
:1048E000100242E9045542E9025510327245F8D1EE
:1048F0000CF1010214F00C0F03EB021204F00F0C88
:1049000013D0ACF1040323F003030433134442F83F
:10491000045B9342FBD10CF003042CB1CAB21C44DB
:1049200003F8012B9C42FBD130BD64461346002C9A
:10493000F4D1F9E703461446BFE71A46A446E0E778
:1049400070B50B4E9AB004466FF00045CDE90445B2
:10495000134600940A463068064C02956946039453
:1049600000F038F8009B00221A701AB070BD00BF2A
:104970000C0000200802FFFF024B13B1024800F0B8
:1049800005B870470000000099490008002301465F
:104990001A46184601F03CBD38B5084B084D5B1B64
:1049A0009C1007D0043B1D44013C55F8043998473E
:1049B000002CF9D1BDE8384007F096B8C4C0000813
:1049C000C0C00008704700BF704700BF704700BFFD
:1049D000704700BF2DE9F04FD5B00C460C919146C1
:1049E0000E930A9002F0A4FE036817931846FCF792
:1049F00087FBA3891690190603D52369002B00F0C5
:104A00008B8700242BAB4D46CDE92944CDE91944D1
:104A1000CDE91B44129428939846189400230894D7
:104A20000024CDE914342B78002B00F0DD81AA4658
:104A300004E01AF8013F002B00F01681252BF8D175
:104A4000BAEB050640F014819AF80030002B00F014
:104A5000CB8100234FF0FF329AF801608DF883304C
:104A600009930AF1010A07921F462B244FF02009EF
:104A70000AF1010AA6F120035A2B00F22D81DFE88A
:104A800013F0BA022B012B01B5022B012B012B01D4
:104A90006A002B012B014F02E3022B015A02C902CB
:104AA0002B01C4025B005B005B005B005B005B00F2
:104AB0005B005B005B002B012B012B012B012B0109
:104AC0002B012B01BF012B011A028600BF01BF0180
:104AD000BF012B012B012B012B01B0022B012B015C
:104AE000C3002B012B012B0124022B015F022B01A0
:104AF0002B013C072B012B012B012B012B012B013F
:104B00002B012B01BF012B011A028800BF01BF013D
:104B1000BF01A302880081002B0196022B018202B3
:104B2000C500700281002B0124027E0039072B0191
:104B30002B0119072B017E00A6F1300300221AF881
:104B4000016B02EB820203EB4202A6F13003092B58
:104B5000F5D909928EE7DDF828B0584602F0E8FD55
:104B600043681B931846FCF7CBFA1C900646584640
:104B700002F0DEFD83681993002E40F07A869AF8E1
:104B8000006075E79AF8006047F0200770E747F08B
:104B90001007BA060E9B40F18081073323F007030C
:104BA0001A465B6852F8084B0E929946002BC0F2E9
:104BB0005F85079B013301F01F8054EA090327F04A
:104BC000800B00F0E3840A2C79F1000380F08187E8
:104BD000303401238DF84F415F460B930DF24F1592
:104BE00007990B989DF8832081424FF00003B8BFCE
:104BF00001460D9306910F9313931093002A7CD0D6
:104C0000069B0133069378E047F0100717F0200960
:104C100000F034810E9B073323F00703D3F8049090
:104C200053F8084B0E9327F4806B002300228DF875
:104C30008320079A511C00F00D8254EA09012BF0E1
:104C4000800740F00682002A41F01080002B40F0DF
:104C5000A2841BF001030B9300F0378530238DF8FD
:104C60004F310DF24F15BBE7BAEB050600F0BC80E3
:104C70002A9B33442A93299B0133072BC8E900560A
:104C8000299305DC08F10808089B33440893DBE608
:104C90000C990A9828AA03F031FC80B90DF1AC08F0
:104CA000F2E70C990A9828AA03F028FC002800F0E3
:104CB0008C800D9B1BB10D990A9802F033FC0C9B64
:104CC0009B8913F0400F089B18BF4FF0FF330893E8
:104CD000089855B0BDE8F08F002E00F085800022C6
:104CE0008DF8EC608DF88320012306930D920B93D1
:104CF00007920F92139210923BAD17F0020302D06D
:104D000006990231069117F0840B07D1099906988C
:104D1000A1EB0009B9F1000F00F315832A9C8AB1B9
:104D2000299A0DF1830101320134C8F80010072AD5
:104D30004FF001012A942992C8F8041000F3468329
:104D400008F1080883B1299B21AA01330234C8F86D
:104D50000020072B4FF002022A942993C8F8042060
:104D600000F3488308F10808BBF1800F00F00E82C1
:104D7000079B0B9AA3EB020BBBF1000F00F34F82D2
:104D8000FB0500F1A5810B9BC8F804301C44299B4E
:104D9000C8F800500133072B2A94299300F3C782E7
:104DA00008F108087B0705D5099B069A9D1A002D76
:104DB00000F32C83DDE9083206998A42ACBF9B18C8
:104DC0005B180893002C7FF46CAF002329930D9B94
:104DD0001BB10D990A9802F0A5FB0DF1AC085546E0
:104DE0002B78002B7FF423AE2A9B002B3FF467AF78
:104DF0000C9C0A9828AA214603F080FBA38960E74F
:104E00000E9B073323F00702F2E80234CDE9143495
:104E1000DDE9143424F000440E92994618462146E8
:104E2000A74B4FF0FF32FCF773FC002840F0628480
:104E3000A34B484621464FF0FF32FCF74BFC0028BD
:104E400040F05884DDE9140100220023FCF738FC0F
:104E5000002840F0AD879DF883209A4D9A4B27F0AB
:104E600080070321472EC8BF1D4600230D930691DE
:104E70000B9107930F9313931093BFE617F0100352
:104E800040F02E8417F0400200F054870E9A52F83A
:104E9000044B0E929946A4B2C5E653F8044B0E9308
:104EA000FB0600F118847D0640F1128444F3C039FA
:104EB0004B4624B27AE60E9B002253F8041B8DF871
:104EC00083208DF8EC100E930EE70E9C079B54F890
:104ED000045B4FF000098DF88390002D00F0D5861B
:104EE0005A1C00F052851A4649462846FCF710F82D
:104EF0000D90002801F057800D9BCDF81C905B1B96
:104F00000B930E9423EAE3739DF883200693CDF868
:104F10003490CDF83C90CDF84C90CDF840906DE6B3
:104F20000E9B53F8042B0992002A80F2C983099A38
:104F30000E93524209929AF8006047F0040797E5F1
:104F400047F0100B1BF0200900F081830E9B073304
:104F500023F00703D3F8049053F8084B0E93012372
:104F600064E60E9B53F8044B0E93302378268DF89D
:104F70008430564B189347F0020B8DF885604FF044
:104F80000009022352E6BD0600F18284FC0600F10E
:104F90007386780600F13C87B90540F16D860E9B5B
:104FA000089953F8042B0E931170554618E79AF898
:104FB00000606C2E03BF9AF8016047F020070AF1E9
:104FC000010A47F0100753E59AF80060682E03BF06
:104FD0009AF8016047F400770AF1010A47F04007A8
:104FE00046E59AF8006047F0080741E59AF8006046
:104FF00047F001073CE59DF88330002B7FF4BFADFF
:105000009AF800608DF8839032E59AF8006047F0D6
:1050100080072DE5524612F8016B2A2E01F0CD8152
:10502000A6F13003092B924698BF002201F2888036
:105030001AF8016B02EB820203EB4202A6F1300385
:10504000092BF5D9079215E59AF800608DF8834091
:105050000EE5BB46012B3FF4B6AD022B54AD12D189
:10506000189A04F00F032409D35C05F8013D44EAC3
:1050700009744FEA191954EA0903F2D154AB5B1BC6
:105080005F460B93ACE504F00703E40844EA497477
:105090004FEAD909303354EA09012A4605F8013D9F
:1050A000F1D11BF0010FE9D0302BE7D03023023AC9
:1050B00005F8013C54AB9B1A5F460B9315468FE5F0
:1050C000FFFFEF7F24BB000828BB000834BB0008AB
:1050D000652E40F3E680DDE9140100220023FCF791
:1050E000E5FA002800F0CD81299BBF4AC8F80020CE
:1050F000013301340122072B2A942993C8F8042094
:1051000000F37D8508F10808229B129A934280F2F1
:10511000D382169B179A1C44C8E90023299B2A9422
:105120000133072B299300F3EB8308F10808129B46
:105130005D1E002D7FF736AE102D299BDFF8AC9257
:1051400040F36E8549462246B946DDF828B00C9CEE
:1051500010260F4605E008F10808103D102D40F319
:105160005B8501331032072BC8E90076CDE929327F
:10517000F1DD28AA2146584603F0C0F900287FF443
:1051800098ADDDE929320DF1AC08E6E7099B069AF6
:10519000A3EB020BBBF1000F7FF7EAADBBF1100FE1
:1051A000299ADFF848922CDD1D9621464E460C9C2C
:1051B000DDF82890102306E0ABF1100BBBF1100FC7
:1051C00008F108081ADD01321031072AC8E9006326
:1051D000CDE92921F0DD28AA214648460DF1AC0889
:1051E00003F08CF900287FF464ADABF1100BBBF138
:1051F000100FDDE929214FF01003E4DCB1461D9EBC
:105200000C4601325C44072ACDE92924C8F80090F5
:10521000C8F804B000F31D8508F10808A8E5BBF143
:10522000100F299ADFF8C4912DDD41462046A8468B
:105230004C460C9DDDF82890102306E0ABF1100BD6
:10524000BBF1100F01F1080119DD01321030072AFE
:10525000C1E90043CDE92920F0DD28AA29464846C6
:1052600003F04CF900287FF424ADABF1100BBBF137
:10527000100FDDE929202BA94FF01003E5DC45468E
:10528000A1468846044601325C44072ACDE9292418
:10529000C8F80090C8F804B000F3CC8108F1080801
:1052A0006EE5129B012B40F37C81299EC8F80050CB
:1052B000013601340123072E2A942996C8F80430B8
:1052C00000F3E08108F10808169B179A01361C4488
:1052D000072EC8E90023CDE9296400F3E08108F135
:1052E0000808DDE9140100220023FCF7DFF900289B
:1052F00040F07481129B0136013B01351C44072E9E
:10530000C8F800502996C8F804302A9400F359814F
:1053100008F108081A9BC8F8043001361C44072E0F
:1053200024ABCDE92964C8F800307FF739AD0C997A
:105330000A9828AA03F0E2F800287FF4BAAC2A9C65
:105340000DF1AC082EE5B9F1100FDDE929212BDDB7
:10535000CDE91D3B1F96DDF828B04E461024A94626
:105360000C9D04E0103E102E08F1080817DD0132F4
:105370001F4B1031072AC8E90034CDE92921F1DD9E
:1053800028AA294658460DF1AC0803F0B7F80028C2
:105390007FF48FAC103E102EDDE92921E7DCDDE93A
:1053A0001D3B4D46B1461F9EC8F80490013209EBE3
:1053B0000104072A0E49C8F80010CDE9292400F39A
:1053C000FF839DF8832008F10808A8E40C990A9847
:1053D0001D9328AA03F092F800287FF46AAC2A9C57
:1053E0001D9B0DF1AC08ADE464BB000878BB000860
:1053F00068BB00080C990A9828AA03F07FF80028D7
:105400007FF457AC2A9C0DF1AC08ADE4102D299B1C
:1054100021DD0A9FDDF83090102604E0103D102DAC
:1054200008F1080817DD0133B04A1034072BC8E92A
:105430000026CDE92934F1DD28AA494638460DF188
:10544000AC0803F05BF800287FF433AC103D102D5E
:10545000DDE92934E7DC0133A44AC8F804502C44C0
:10546000072BCDE92934C8F800207FF7A3AC0C99AD
:105470000A9828AA03F042F800287FF41AAC2A9C64
:1054800098E42299002940F36683DDF84090129B4E
:105490009945A8BF9946B9F1000F0BDD299B01334F
:1054A0004C44072BC8E900592A94299300F32F850F
:1054B00008F10808109EB9F1000FA8BFA6EB090675
:1054C000002E00F33882DDF840B07805AB4400F1DF
:1054D0006682229B129A934202DBF90740F18E8486
:1054E000169A17991444C8E90012299A2A9401328D
:1054F000072A299200F3188508F10808129AAE18B5
:10550000A6EB0B06D51AAE42A8BF2E46002E0DDD27
:10551000299BC8F800B001333444072BC8F8046055
:105520002A94299300F31A8608F10808002EA8BFD0
:10553000AD1B002D7FF736AC102D299BDFF8B09105
:1055400040F36E8349462246B946DDF828B00C9CEC
:1055500010260F4605E008F10808103D102D40F315
:105560005B8301331032072BC8E90076CDE929327D
:10557000F1DD28AA2146584602F0C0FF00287FF43A
:1055800098ABDDE929320DF1AC08E6E7079B002B6B
:105590007FF41EAB5F46002307930B9354ADFFF7D8
:1055A0001FBBFA073FF581AE299EC8F800500136AF
:1055B00001340123072E2A942996C8F804307FF776
:1055C000A7AE0C990A9828AA02F098FF00287FF449
:1055D00070ABDDE929640DF1AC089BE6129B5D1E02
:1055E000002D7FF797AE102DDFF8049140F39683DE
:1055F000224607970A9C0C9F4FF0100B05E008F11C
:105600000808103D102D40F3878301361032072E15
:10561000C8E9009BCDE92962F1DD28AA3946204678
:1056200002F06CFF00287FF444ABDDE929620DF144
:10563000AC08E6E70C990A9828AA02F05FFF002858
:105640007FF437AB2A9C0DF1AC08FFF799BB1BF038
:10565000100340F028811BF0400200F079830E9A7D
:1056600052F8044B0E929946A4B20123FFF7DEBA1A
:105670002D2364428DF8833069EB4909BB46012331
:10568000FFF7D7BA0C990A9828AA02F037FF00282A
:105690007FF40FABDDE929640DF1AC0814E60C9939
:1056A0000A9828AA02F02AFF00287FF402ABDDE95D
:1056B00029640DF1AC0814E6FD077FF573AB28E50E
:1056C0009AF800600E93FFF7D3B954ADFFF788BA8C
:1056D000B80500F1A6834FEAE4794B46FFF766BAB6
:1056E0000E9B53F8044B0E93FFF79DBA68BB00085E
:1056F00078BB0008DDE9140102460B46FCF708F808
:10570000002840F00F86612E00F04585412E00F004
:105710006D84079B013326F02003069300F0A983D4
:10572000472B00F08885DDE9141247F480730F934E
:105730001346002BC0F292850B9300231D938B46DA
:105740000D93069B462B00F0FD83452B00F044850E
:105750000799019126A9049123A9039122A90291F5
:1057600002210B9B0A9800915A4600F029FF069BE4
:10577000472B054640F0318617F0010FB9460F9FC1
:1057800040F0FC84269B5B1B1293069B472B00F08A
:105790008283069B462B00F01284229B1093109B61
:1057A000069A013B412A229300F0AD85F2B2002116
:1057B000002BB8BF109B8DF89020BABFC3F1010336
:1057C0002D222B22092B8DF8912040F38D850DF190
:1057D0009F04B64F2246104687FB0321DA17C2EB1F
:1057E000A10202EB8201A3EB4101303100F8011C60
:1057F00019466329134600F1FF32ECDC3033D9B28D
:10580000831E9C4202F8011C40F2F18513460DF103
:10581000920201E013F8011B02F8011B9C42F9D12E
:105820000DF1A1030DF192021B1A134424AA9B1A35
:105830001A93129B1A9A012B1A440B9240F39E85DD
:105840000B9B169A13440B930B9A002329F4806741
:1058500022EAE27247F480770F9306921393109333
:105860001D9B002B40F03F839DF883200793FFF79B
:10587000C5B9199B002B3FF482A9199B1B78002BFB
:105880003FF47DA99AF8006047F48067FFF7F0B80D
:105890000E9B089853F8041B0E93C217C1E900022F
:1058A0005546FFF79DBA0E9B53F8044B0E93012308
:1058B000FFF7BCB97E4B189317F0200900F0EC807D
:1058C0000E9B073323F00703D3F8049053F8084BDB
:1058D0000E93F80709D554EA090306D030238DF852
:1058E000856047F002078DF8843027F4806B02232F
:1058F000FFF79CB9BB46FFF725BB6E4B1893DBE760
:105900000C990A9828AA02F0F9FD00287FF4D1A981
:105910002A9C0DF1AC080AE40A98402101F00CFF22
:105920000C9B18601861002800F065850C9A4023D4
:105930005361FFF766B8102E299BDFF87C9140F386
:105940002982484642462146A846B9460A9C0C9DF3
:105950004FF0100B074604E00832103E102E40F3C3
:10596000138201331031072BC2E9007BCDE92931C5
:10597000F2DD28AA2946204602F0C0FD00287FF467
:1059800098A9DDE929312BAAE7E72846CDF81C9034
:105990000E94FBF7B5FB03460B90FFF7B3BA129BCF
:1059A000CDF82CA04246DDF84C801097EB180793F9
:1059B0005E46199FDDF87090DDF828A0DDF830B064
:1059C0000F9B13952146B8F1000F2FD0002B30D13B
:1059D000013F08F1FF381B9BC2E90039299B0133C5
:1059E0004944072B2A91299368DC0832079B3878B1
:1059F0009B1B8342A8BF0346002B1C460BDD299846
:105A0000013019440728C2E900632A91299000F364
:105A1000148138780832002CACBF051B0546002DD8
:105A20000BDC06440F9BB8F1000FCFD1002B00F028
:105A300023820F9B013B0F93CDE7102D29981DDD8D
:105A4000102404E0103D102D02F1080216DD013093
:105A5000194B10310728C2E90034CDE92901F1DDE5
:105A600028AA5946504602F049FD00287FF421A992
:105A7000103D102DDDE929012BAAE8DC01300E4B89
:105A8000556029440728CDE92901136000F33282CB
:105A9000387808320644C5E717F0100300F0A180FB
:105AA0000E9B53F8044B0E9313E700BF67666666C0
:105AB00034BB000848BB000878BB000828AA594638
:105AC000504602F01BFD00287FF4F3A82A992BAA68
:105AD0008CE70BF4806300220696CDF82CA0CDF85D
:105AE000348054AFDDF864809A4616460CE00023FB
:105AF000204649460A22FBF789F80A2C79F100036F
:105B00001BD3044689462F4620460A2200234946D5
