:020000040800F2
:1000000000000220853F0008C93C0008CB3C0008E6
:10001000CD3C0008CF3C0008D13C000800000000A7
:10002000000000000000000000000000D33C0008B9
:10003000D53C000800000000D73C0008D93C00086F
:10004000D53F0008D53F0008D53F0008D53F000840
:10005000D53F0008D53F0008D53F0008D53F000830
:10006000D53F0008D53F0008D53F0008D53F000820
:10007000E13C0008D53F0008D53F0008D53F000807
:10008000D53F0008D53F0008D53F0008D53F000800
:10009000F13C0008D53F0008D53F0008D53F0008D7
:1000A000D53F0008D53F0008D53F0008D53F0008E0
:1000B000D53F0008D53F0008D53F0008D53F0008D0
:1000C000D53F0008D53F0008D53F0008D53F0008C0
:1000D000D53F0008D12E0008D53F00087D36000826
:1000E000D53F0008D53F0008D53F0008D53F0008A0
:1000F000D53F0008D53F0008D53F0008D53F000890
:10010000D53F0008D53F0008D53F0008D53F00087F
:10011000D53F0008D53F0008D53F0008D53F00086F
:10012000D53F0008D53F0008013D0008D53F000835
:10013000D53F0008D53F0008D53F0008D53F00084F
:10014000113D0008D53F0008D53F0008D53F000805
:10015000D53F0008D53F0008213D0008D53F0008E5
:10016000D53F0008D53F0008D53F0008D53F00081F
:10017000D53F0008D53F0008D53F0008000000002B
:08018000D53F0008D53F00083F
:1001880010B5054C237833B9044B13B10448AFF3C9
:1001980000800123237010BD3C04002000000000F3
:1001A8007C55000808B5034B1BB103490348AFF35E
:1001B800008008BD00000000400400207C550008B5
:1001C80081F0004102E000BF83F0004330B54FEA00
:1001D80041044FEA430594EA050F08BF90EA020F6D
:1001E8001FBF54EA000C55EA020C7FEA645C7FEA00
:1001F800655C00F0E2804FEA5454D4EB5555B8BF23
:100208006D420CDD2C4480EA020281EA030382EA93
:10021800000083EA010180EA020281EA0303362D25
:1002280088BF30BD11F0004F4FEA01314FF4801CF8
:100238004CEA113102D0404261EB410113F0004F0A
:100248004FEA03334CEA133302D0524263EB4303C1
:1002580094EA050F00F0A780A4F10104D5F1200E5F
:100268000DDB02FA0EFC22FA05F2801841F10001BA
:1002780003FA0EF2801843FA05F359410EE0A5F18E
:1002880020050EF1200E012A03FA0EFC28BF4CF0BF
:10029800020C43FA05F3C01851EBE37101F0004575
:1002A80007D54FF0000EDCF1000C7EEB00006EEB82
:1002B8000101B1F5801F1BD3B1F5001F0CD349080C
:1002C8005FEA30004FEA3C0C04F101044FEA445263
:1002D80012F5800F80F09A80BCF1004F08BF5FEAEA
:1002E800500C50F1000041EB045141EA050130BDCA
:1002F8005FEA4C0C404141EB0101013C28BFB1F5DC
:10030800801FE9D291F0000F04BF01460020B1FA26
:1003180081F308BF2033A3F10B03B3F120020CDAF9
:100328000C3208DD02F1140CC2F10C0201FA0CF0D7
:1003380021FA02F10CE002F11402D8BFC2F1200C3C
:1003480001FA02F120FA0CFCDCBF41EA0C019040F2
:10035800E41AA2BF01EB0451294330BD6FEA04043B
:100368001F3C1CDA0C340EDC04F11404C4F1200226
:1003780020FA04F001FA02F340EA030021FA04F338
:1003880045EA030130BDC4F10C04C4F1200220FA8F
:1003980002F001FA04F340EA0300294630BD21FACD
:1003A80004F0294630BD94F0000F83F4801306BF93
:1003B80081F480110134013D4EE77FEA645C18BF87
:1003C8007FEA655C29D094EA050F08BF90EA020F1E
:1003D80005D054EA000C04BF1946104630BD91EA16
:1003E800030F1EBF0021002030BD5FEA545C05D119
:1003F8004000494128BF41F0004130BD14F5800458
:100408003CBF01F5801130BD01F0004545F0FE41CB
:1004180041F470014FF0000030BD7FEA645C1ABF00
:10042800194610467FEA655C1CBF0B46024650EA37
:10043800013406BF52EA033591EA030F41F4002163
:1004480030BD00BF90F0000F04BF0021704730B5E9
:100458004FF4806404F132044FF000054FF00001BE
:1004680050E700BF90F0000F04BF0021704730B57F
:100478004FF4806404F1320410F0004548BF404254
:100488004FF000013EE700BF42004FEAE2014FEAA9
:1004980031014FEA02701FBF12F07F4393F07F4F84
:1004A80081F06051704732F07F4208BF704793F087
:1004B8007F4F04BF41F40021704730B54FF460749A
:1004C80001F0004521F000411CE700BF50EA01029D
:1004D80008BF704730B54FF000050AE050EA010246
:1004E80008BF704730B511F0004502D5404261EBB6
:1004F80041014FF4806404F132045FEA915C3FF4F7
:10050800D8AE4FF003025FEADC0C18BF03325FEA93
:10051800DC0C18BF033202EBDC02C2F1200300FA44
:1005280003FC20FA02F001FA03FE40EA0E0021FA69
:1005380002F11444BDE600BF4FEA4102B2F1E043C4
:1005480024BFB3F5001CDCF1FE5C0DD901F0004CB2
:100558004FEAC0024CEA5070B2F1004F40EB830002
:1005680008BF20F00100704711F0804F21D113F12E
:100578003872BCBF01F00040704741F480114FEA67
:100588005252C2F11802C2F1200C10FA0CF320FAF0
:1005980002F018BF40F001004FEAC1234FEAD3230D
:1005A80003FA0CFC40EA0C0023FA02F34FEA430377
:1005B800CCE77FEA625307D150EA01331EBF4FF000
:1005C800FE4040F44000704701F0004040F0FE401B
:1005D80040F40000704700BF80F0004002E000BF18
:1005E80081F0004142001FBF5FEA410392EA030F16
:1005F8007FEA226C7FEA236C6AD04FEA1262D2EB60
:100608001363C1BFD218414048404140B8BF5B4264
:10061800192B88BF704710F0004F40F4000020F0FD
:100628007F4018BF404211F0004F41F4000121F013
:100638007F4118BF494292EA030F3FD0A2F101025D
:1006480041FA03FC10EB0C00C3F1200301FA03F19B
:1006580000F0004302D5494260EB4000B0F5000FBE
:1006680013D3B0F1807F06D340084FEA310102F17D
:100678000102FE2A51D2B1F1004F40EBC25008BF2F
:1006880020F0010040EA03007047490040EB0000F9
:10069800013A28BFB0F5000FEDD2B0FA80FCACF1FA
:1006A800080CB2EB0C0200FA0CF0AABF00EBC25027
:1006B80052421843BCBFD0401843704792F0000F15
:1006C80081F4000106BF80F400000132013BB5E768
:1006D8004FEA41037FEA226C18BF7FEA236C21D0DE
:1006E80092EA030F04D092F0000F08BF0846704743
:1006F80090EA010F1CBF0020704712F07F4F04D111
:10070800400028BF40F00040704712F100723CBF23
:1007180000F50000704700F0004343F0FE4040F44D
:10072800000070477FEA226216BF08467FEA23630B
:100738000146420206BF5FEA412390EA010F40F4F6
:10074800800070474FF0000304E000BF10F0004342
:1007580048BF40425FEA000C08BF704743F0964329
:1007680001464FF000001CE050EA010208BF704744
:100778004FF000030AE000BF50EA010208BF7047CB
:1007880011F0004302D5404261EB41015FEA010CE0
:1007980002BF84460146002043F0B64308BFA3F1D8
:1007A8008053A3F50003BCFA8CF2083AA3EBC253BA
:1007B80010DB01FA02FC634400FA02FCC2F12002D9
:1007C800BCF1004F20FA02F243EB020008BF20F010
:1007D8000100704702F1200201FA02FCC2F1200276
:1007E80050EA4C0021FA02F243EB020008BF20EA6B
:1007F800DC7070474FF0FF0C1CEAD0521EBF1CEA99
:10080800D15392EA0C0F93EA0C0F6FD01A4480EA86
:10081800010C400218BF5FEA41211ED04FF000636F
:1008280043EA501043EA5111A0FB01310CF000409B
:10083800B1F5000F3EBF490041EAD3715B0040EAC1
:10084800010062F17F02FD2A1DD8B3F1004F40EB91
:10085800C25008BF20F00100704790F0000F0CF064
:10086800004C08BF49024CEA502040EA51207F3A28
:10087800C2BFD2F1FF0340EAC250704740F4000003
:100888004FF00003013A5DDC12F1190FDCBF00F0F4
:1008980000407047C2F10002410021FA02F1C2F1A2
:1008A800200200FA02FC5FEA310040F1000053EA3E
:1008B8004C0308BF20EADC70704792F0000F00F08C
:1008C800004C02BF400010F4000F013AF9D040EA92
:1008D8000C0093F0000F01F0004C02BF490011F426
:1008E800000F013BF9D041EA0C018FE70CEAD15324
:1008F80092EA0C0F18BF93EA0C0F0AD030F0004CA4
:1009080018BF31F0004CD8D180EA010000F0004057
:10091800704790F0000F17BF90F0004F084691F015
:10092800000F91F0004F14D092EA0C0F01D142024F
:100938000FD193EA0C0F03D14B0218BF084608D118
:1009480080EA010000F0004040F0FE4040F4000062
:10095800704740F0FE4040F4400070474FF0FF0CF5
:100968001CEAD0521EBF1CEAD15392EA0C0F93EA3C
:100978000C0F69D0A2EB030280EA010C49024FEA8E
:10098800402037D04FF0805343EA111143EA101347
:100998000CF000408B4238BF5B0042F17D024FF4FF
:1009A800000C8B4224BF5B1A40EA0C00B3EB510FDA
:1009B80024BFA3EB510340EA5C00B3EB910F24BFC3
:1009C800A3EB910340EA9C00B3EBD10F24BFA3EB48
:1009D800D10340EADC001B0118BF5FEA1C1CE0D110
:1009E800FD2A3FF650AF8B4240EBC25008BF20F0C3
:1009F800010070470CF0004C4CEA50207F32C2BF17
:100A0800D2F1FF0340EAC250704740F400004FF0B3
:100A18000003013A37E792F0000F00F0004C02BFE4
:100A2800400010F4000F013AF9D040EA0C0093F0AE
:100A3800000F01F0004C02BF490011F4000F013B08
:100A4800F9D041EA0C0195E70CEAD15392EA0C0F70
:100A580008D142027FF47DAF93EA0C0F7FF470AFA8
:100A6800084676E793EA0C0F04D14B023FF44CAFEB
:100A780008466EE730F0004C18BF31F0004CCAD180
:100A880030F000427FF45CAF31F000437FF43CAFBC
:100A98005FE700BF4FF0FF3C06E000BF4FF0010CDE
:100AA80002E000BF4FF0010C4DF804CD4FEA4002C0
:100AB8004FEA41037FEA226C18BF7FEA236C11D00A
:100AC80001B052EA530C18BF90EA010F58BFB2EBBD
:100AD800030088BFC81738BF6FEAE17018BF40F03D
:100AE800010070477FEA226C02D15FEA402C05D1F1
:100AF8007FEA236CE4D15FEA412CE1D05DF8040B76
:100B0800704700BF844608466146FFE70FB5FFF708
:100B1800C9FF002848BF10F1000F0FBD4DF808EDC0
:100B2800FFF7F4FF0CBF012000205DF808FB00BFB1
:100B38004DF808EDFFF7EAFF34BF012000205DF80B
:100B480008FB00BF4DF808EDFFF7E0FF94BF012058
:100B580000205DF808FB00BF4DF808EDFFF7D2FF55
:100B680094BF012000205DF808FB00BF4DF808ED98
:100B7800FFF7C8FF34BF012000205DF808FB00BF65
:100B88004FEA4002B2F1FE4F0FD34FF09E03B3EB92
:100B980012620DD94FEA002343F0004310F0004FD2
:100BA80023FA02F018BF404270474FF00000704728
:100BB80012F1610F01D1420205D110F0004008BFC7
:100BC8006FF0004070474FF00000704753B94AB9C2
:100BD800002908BF00281CBF4FF0FF314FF0FF303D
:100BE80000F074B9ADF1080C6DE904CE00F006F818
:100BF800DDF804E0DDE9022304B070472DE9F04791
:100C0800089E0D4604468846002B4DD18A429446DC
:100C180068D9B2FA82F252B101FA02F3C2F12001A4
:100C280020FA01F10CFA02FC41EA030894404FEA69
:100C38001C45210CB8FBF5FE1FFA8CF705FB1E833B
:100C480041EA03430EFB07F199420BD91CEB03035E
:100C58000EF1FF3080F01E81994240F21B81AEF107
:100C6800020E63445B1AA4B2B3FBF5F005FB103324
:100C780044EA034400FB07F7A7420AD91CEB040423
:100C880000F1FF3380F00881A74240F205816444F7
:100C98000238E41B40EA0E4000211EB1D440002374
:100CA800C6E90043BDE8F0878B4208D9002E00F062
:100CB800EE800021C6E900050846BDE8F087B3FAD2
:100CC80083F100294AD1AB4202D3824200F2F98073
:100CD800841A65EB030301209846002EE2D0C6E98A
:100CE8000048DFE702B9FFDEB2FA82F2002A40F0DC
:100CF8009180A1EB0C054FEA1C471FFA8CFE0121DD
:100D0800B5FBF7F307FB1350250C45EA00450EFB2E
:100D180003F0A84208D91CEB050503F1FF3802D2FD
:100D2800A84200F2CB8043462D1AA4B2B5FBF7F0D7
:100D380007FB105544EA05440EFB00FEA64508D9FA
:100D48001CEB040400F1FF3502D2A64500F2BB807B
:100D58002846A4EB0E0440EA03409EE7C1F12007B1
:100D68008B4022FA07FC4CEA030C20FA07F405FA38
:100D780001F31C43FD404FEA1C4900FA01F3B5FB9F
:100D8800F9F8200C1FFA8CFE09FB185540EA0545B6
:100D980008FB0EF0A84202FA01F20BD91CEB05057C
:100DA80008F1FF3A80F08880A84240F28580A8F1D7
:100DB800020865442D1AA4B2B5FBF9F009FB1055D9
:100DC80044EA054500FB0EFEAE4508D91CEB0505B7
:100DD80000F1FF346CD2AE456AD90238654440EA66
:100DE8000840A0FB0294A5EB0E05A542C846A646FE
:100DF80056D353D05EB1B3EB080265EB0E0505FA86
:100E080007F722FA01F3CD401F43C6E90075002118
:100E1800BDE8F087C2F1200320FA03F10CFA02FCC6
:100E280025FA03F395400D434FEA1C471FFA8CFE41
:100E3800B3FBF7F107FB11302B0C43EA004301FB2E
:100E48000EF0984204FA02F408D91CEB030301F1EE
:100E5800FF382FD298422DD9023963441B1AADB2FC
:100E6800B3FBF7F007FB103345EA034500FB0EF32D
:100E7800AB4208D91CEB050500F1FF3816D2AB428E
:100E880014D902386544ED1A40EA014138E7314681
:100E9800304607E78646E5E61846FAE64B45A9D206
:100EA800B9EB020864EB0C0E0138A3E74046EAE709
:100EB800204694E74146D1E7D0467BE7023B6544AC
:100EC80032E7084609E76444023842E7704700BF42
:100ED80070B54FF0FF0C4CF4E06C1CEA11541DBFC8
:100EE8001CEA135594EA0C0F95EA0C0F00F0DEF893
:100EF8002C4481EA030621EA4C5123EA4C5350EA78
:100F0800013518BF52EA033541F4801143F48013C8
:100F180038D0A0FB02CE4FF00005E1FB02E506F059
:100F28000042E0FB03E54FF00006E1FB03569CF0AE
:100F3800000F18BF4EF0010EA4F1FF04B6F5007FB4
:100F480064F5407404D25FEA4E0E6D4146EB060626
:100F580042EAC62141EA55514FEAC52040EA5E50AF
:100F68004FEACE2EB4F1FD0C88BFBCF5E06F1ED859
:100F7800BEF1004F08BF5FEA500E50F1000041EB90
:100F8800045170BD06F0004646EA010140EA02003D
:100F980081EA0301B4EB5C04C2BFD4EB0C0541EA5F
:100FA800045170BD41F480114FF0000E013C00F374
:100FB800AB8014F1360FDEBF002001F0004170BD98
:100FC800C4F10004203C35DA0C341BDC04F11404B1
:100FD800C4F1200500FA05F320FA04F001FA05F23D
:100FE80040EA020001F0004221F0004110EBD3700A
:100FF80021FA04F642EB06015EEA430E08BF20EA36
:10100800D37070BDC4F10C04C4F1200500FA04F3D8
:1010180020FA05F001FA04F240EA020001F000416A
:1010280010EBD37041F100015EEA430E08BF20EADD
:10103800D37070BDC4F1200500FA05F24EEA020E25
:1010480020FA04F301FA05F243EA020321FA04F054
:1010580001F0004121FA04F220EA020000EBD3700B
:101068005EEA430E08BF20EAD37070BD94F0000F0B
:101078000FD101F00046400041EB010111F4801F3F
:1010880008BF013CF7D041EA060195F0000F18BFF0
:10109800704703F00046520043EB030313F4801F2C
:1010A80008BF013DF7D043EA0603704794EA0C0FE6
:1010B8000CEA135518BF95EA0C0F0CD050EA4106FC
:1010C80018BF52EA4306D1D181EA030101F0004179
:1010D8004FF0000070BD50EA410606BF10461946A1
:1010E80052EA430619D094EA0C0F02D150EA0136AD
:1010F80013D195EA0C0F05D152EA03361CBF1046EE
:1011080019460AD181EA030101F0004141F0FE418C
:1011180041F470014FF0000070BD41F0FE4141F410
:10112800780170BD70B54FF0FF0C4CF4E06C1CEA10
:1011380011541DBF1CEA135594EA0C0F95EA0C0FC5
:1011480000F0A7F8A4EB050481EA030E52EA033580
:101158004FEA013100F088804FEA03334FF08055A1
:1011680045EA131343EA12634FEA022245EA1115CE
:1011780045EA10654FEA00260EF000419D4208BF7F
:10118800964244F1FD0404F5407402D25B084FEA2C
:101198003202B61A65EB03055B084FEA32024FF4D8
:1011A80080104FF4002CB6EB020E75EB030E22BF35
:1011B800B61A754640EA0C005B084FEA3202B6EBF5
:1011C800020E75EB030E22BFB61A754640EA5C00A4
:1011D8005B084FEA3202B6EB020E75EB030E22BF34
:1011E800B61A754640EA9C005B084FEA3202B6EB35
:1011F800020E75EB030E22BFB61A754640EADC00F4
:1012080055EA060E18D04FEA051545EA16754FEA55
:1012180006164FEAC30343EA52734FEAC2025FEA73
:101228001C1CC0D111F4801F0BD141EA00014FF002
:1012380000004FF0004CB6E711F4801F04BF0143D3
:101248000020B4F1FD0C88BFBCF5E06F3FF6AFAEEF
:10125800B5EB030C04BFB6EB020C5FEA500C50F17F
:10126800000041EB045170BD0EF0004E4EEA113102
:1012780014EB5C04C2BFD4EB0C0541EA045170BD09
:1012880041F480114FF0000E013C90E645EA060E4D
:101298008DE60CEA135594EA0C0F08BF95EA0C0F7B
:1012A8003FF43BAF94EA0C0F0AD150EA01347FF4C3
:1012B80034AF95EA0C0F7FF425AF104619462CE79A
:1012C80095EA0C0F06D152EA03353FF4FDAE1046FD
:1012D800194622E750EA410618BF52EA43067FF44E
:1012E800C5AE50EA41047FF40DAF52EA43057FF4DE
:1012F800EBAE12E74FF0FF3C06E000BF4FF0010CE9
:1013080002E000BF4FF0010C4DF804CD4FEA410C4C
:101318007FEA6C5C4FEA430C18BF7FEA6C5C1BD019
:1013280001B050EA410C0CBF52EA430C91EA030F9A
:1013380002BF90EA020F0020704710F1000F91EAF7
:10134800030F58BF994208BF90422CBFD8176FEAC5
:10135800E37040F0010070474FEA410C7FEA6C5C93
:1013680002D150EA013C07D14FEA430C7FEA6C5C9A
:10137800D6D152EA033CD3D05DF8040B704700BFC6
:101388008446104662468C461946634600E000BF14
:1013980001B5FFF7B7FF002848BF10F1000F01BDE6
:1013A8004DF808EDFFF7F4FF0CBF012000205DF8B1
:1013B80008FB00BF4DF808EDFFF7EAFF34BF012036
:1013C80000205DF808FB00BF4DF808EDFFF7E0FFCF
:1013D80094BF012000205DF808FB00BF4DF808ED20
:1013E800FFF7CEFF94BF012000205DF808FB00BF87
:1013F8004DF808EDFFF7C4FF34BF012000205DF869
:1014080008FB00BF4FEA410212F5001215D211D5B0
:101418006FF47873B3EB625212D94FEAC12343F0E9
:10142800004343EA505311F0004F23FA02F018BF6B
:10143800404270474FF00000704750EA013005D134
:1014480011F0004008BF6FF0004070474FF00000F7
:10145800704700BF10B504460E4B18784FF47A73E6
:10146800B3FBF0F30C4A1068B0FBF3F000F08EFC0D
:1014780068B90F2C01D901200AE0002221464FF05B
:10148800FF3000F03DFC054B1C60002000E001200F
:1014980010BD00BF0000002008000020040000204C
:1014A80008B50B4B1A6842F400721A601A6842F4C5
:1014B80080621A601A6842F480721A60032000F091
:1014C8000DFC0F20FFF7C6FF02F0DEFB002008BD71
:1014D800003C0240034A1168034B1B780B4413601D
:1014E800704700BF5804002000000020014B186816
:1014F800704700BF5804002038B50446FFF7F6FFD0
:101508000546B4F1FF3F02D0044B1B781C44FFF79B
:10151800EDFF401BA042FAD338BD00BF00000020F9
:10152800002800F0A18038B5044690F82030D3B1E7
:101538002268136843F001031360FFF7D7FF0546DD
:1015480023685A6812F0010F10D1FFF7CFFF401B34
:101558000A28F5D9636A43F400336362052384F8E3
:101568002030012038BD02F0BFF9E1E71A6822F007
:1015780002021A60FFF7BAFF054623685A6812F09C
:10158800020F0DD0FFF7B2FF401B0A28F5D9636A96
:1015980043F400336362052384F820300120E1E737
:1015A800227E012A3DD01A6822F080021A60637EEA
:1015B800012B3BD02268136823F040031360A37EFD
:1015C800012B39D02268136823F020031360E37ECF
:1015D800012B37D02268136843F010031360237F70
:1015E800012B35D02268136823F008031360637F4A
:1015F800012B33D02268136823F004031360A36817
:10160800E268134322691343626913436268013A2B
:1016180021681343CB6100206062012384F82030E5
:10162800A0E71A6842F080021A60C0E722681368CF
:1016380043F040031360C2E72268136843F02003B5
:101648001360C4E72268136823F010031360C6E729
:101658002268136843F008031360C8E72268136818
:1016680043F004031360CAE70120704790F8203064
:10167800013BDBB2012B05D9436A43F48023436263
:101688000120704710B5474BD3F8002242F0010201
:10169800C3F80022D3F8002222F47C52C3F80022B7
:1016A800D3F80022486A42EA0022C3F800224A69B5
:1016B80002F01F02012000FA02F2D3F81C026FEABE
:1016C800020C20EA0200C3F81C02CB69CBB9354BE7
:1016D800D3F80C020CEA0000C3F80C028C884869A5
:1016E800D1F80CE044EA0E44483043F830408C68A6
:1016F800088840EA04404C6904F1480E03EBCE0325
:101708005860CB69012B1ED08B69002B35D1254839
:10171800D0F804320CEA0303C0F804320B699BBB0F
:101728002048D0F814320CEA0303C0F814320B6ACC
:10173800012B30D01B4AD2F8003223F00103C2F843
:101748000032002010BD174BD3F80C021043C3F829
:101758000C028C884869D1F800E044EA0E4448300D
:1017680043F8304088894C69D1F808E040EA0E40D7
:10177800483403EBC4035860C6E70A48D0F804327B
:101788001343C0F80432C9E70648D0F814321343AB
:10179800C0F81432CBE70349D1F81C321A43C1F818
:1017A8001C22C7E70064004070B5044690F820503A
:1017B800EDB2012D06D0436A43F4002343620125AC
:1017C800284670BD022380F820300268136823F091
:1017D80001031360FFF78AFE064623685B6813F06F
:1017E800010F0CD0FFF782FE831B0A2BF5D9636A21
:1017F80043F400336362052384F82030E0E70025D2
:101808006562DDE730B590F820C00468A4680CF183
:10181800FF3C5FFA8CFCBCF1010F6BD814F0E05F61
:1018280062D0C4F3016CBCF1020F05D9436A43F4DA
:1018380000034362012062E0012404FA0CF41C60F6
:101848008B68002B3DD10D68CB68046843EA455589
:101858000CF118031B01E55003680C690CF1180E14
:1018680003EB0E135C600B7D012B35D0D179937996
:101878001B0443EA0163517943EA0123147901689F
:10188800234301EB0C11C1F88C31D17893781B04F8
:1018980043EA0163517843EA0123117802680B4354
:1018A80002EB0C12C2F8883102680CF1180C4FEAEE
:1018B8000C1C52F80C3043F0010342F80C300020A5
:1018C8001DE04C6843EAC403CC6823430CF11804B8
:1018D800240105682B51BFE7036803EB0E13596811
:1018E80041F480715960C1E7436A43F400134362CD
:1018F800012004E0436A43F480234362012030BDA1
:1019080090F820C00CF1FF3C5FFA8CFCBCF1010F91
:1019180000F29B8010B451B90468E46814F0030F16
:1019280010D1436A43F40013436201207BE004684A
:10193800246914F0030F05D1436A43F4001343628A
:10194800012070E001F11B042401D0F800C05CF80C
:10195800044004F004049460002C66D101F11B04D7
:101968002401D0F800C05CF80440640D14600468D9
:1019780001F11B0C4FEA0C1C54F80C4004F0020453
:10198800D46004686444646804F00F041461046853
:1019980064446468C4F30724946104686444646814
:1019A800240C5461026802EB0112D2F8B8211A70B3
:1019B800026802EB0112D2F8B821C2F307225A706A
:1019C800026802EB0112D2F8B821C2F307429A70FA
:1019D800026802EB0112D2F8B821120EDA7002681E
:1019E80002EB0112D2F8BC211A71026802EB011253
:1019F800D2F8BC21C2F307225A71026802EB011225
:101A0800D2F8BC21C2F307429A71026802EB0112B4
:101A1800D2F8BC21120EDA7189B90268D36843F092
:101A28002003D360002010BC704701F11B0424017F
:101A3800D0F800C05CF80440E408546097E70268F6
:101A4800136943F020031361ECE7436A43F48023EE
:101A580043620120704790F82030013BDBB2012B34
:101A680005D9436A43F48023436201207047026822
:101A78005369194351610020704770477047704798
:101A88007047704770477047704770477047704796
:101A980070472DE9F84F054603685C69D3F8048060
:101AA8009F68D3F80CB0D3F810A0D3F8189014F0AE
:101AB80001063BD017F0010616D001229A6017F0F4
:101AC800020F08D117F0040F0CD117F0080606D042
:101AD8004FF4805608E0FFF7D0FF002604E0FFF738
:101AE800CFFF01E04FF4006617F4807F0DD02B681C
:101AF8004FF480729A6017F4007F40F0868017F4E4
:101B0800806F00F0868046F4005617F4803F0DD0B1
:101B18002B684FF480329A6017F4003F40F08380BE
:101B280017F4802F00F0838046F4004614F0080F65
:101B380007D01BF0100F04D046F400762B68102253
:101B4800DA6014F0040F02D01BF0080F79D114F0FA
:101B5800020F04D02B68DB6813F0030F78D114F060
:101B6800400F07D01AF0100F04D046F480662B6897
:101B780010221A6114F0200F02D01AF0080F6BD14E
:101B880014F0100F04D02B681B6913F0030F6AD1EF
:101B980014F4003F02D018F0100F68D114F4803FFD
:101BA80002D018F0080F69D114F4004F7AD018F059
:101BB800040F74D014F4807F04D019F0010F01D001
:101BC80046F0010614F4007F04D019F0020F01D08A
:101BD80046F0020614F4806F04D019F0040F01D007
:101BE80046F0040614F4006F59D019F0700956D065
:101BF800B9F1400F65D058D8B9F1200F5ED0B9F1CE
:101C0800300F42D146F0200644E02846FFF736FF61
:101C18007BE717F4006F02D046F4804675E7284644
:101C2800FFF72FFF71E72846FFF729FF7EE717F434
:101C3800002F02D046F4803678E72846FFF722FFC7
:101C480074E72B680822DA602846FFF71CFF7EE756
:101C5800284600F0F1FF82E72B6808221A6128461F
:101C6800FFF713FF8CE72846FFF70EFF90E72B6876
:101C780010225A602846FFF709FF8FE72B680822D1
:101C88005A602846FFF703FF8EE7B9F1100F01D11C
:101C980046F008062A68936923F0700393612B685D
:101CA80004225A609EB9BDE8F88FB9F1500F0BD0E5
:101CB800B9F1600FEED146F48076EBE746F01006F6
:101CC800E8E746F04006E5E746F08006E2E76B6A9B
:101CD8001E436E622846FFF7DBFEE4E7074AD36837
:101CE80023F4E0631B041B0C000200F4E0600343D0
:101CF80043F0BF6343F40033D360704700ED00E066
:101D080000B5194BDB68C3F30223C3F1070CBCF120
:101D1800040F28BF4FF0040C03F1040EBEF1060FA8
:101D280018D9033B4FF0FF3E0EFA0CFC21EA0C01D8
:101D380099400EFA03F322EA0303194300280BDB48
:101D48000901C9B200F1604000F5614080F8001354
:101D58005DF804FB0023E5E700F00F000901C9B2B4
:101D6800024B1954F4E700BF00ED00E014ED00E069
:101D7800002807DB00F01F02400901239340024AB4
:101D880042F82030704700BF00E100E00138B0F1B0
:101D9800807F0BD24FF0E0235861054AF02182F88A
:101DA80023100020986107221A61704701207047AC
:101DB80000ED00E010B40368D9B210390B4AA2FB59
:101DC800014212090A4CA25CC2655F2908D923F4B2
:101DD8007F7323F0030304338365806D10BC704761
:101DE80023F47F7323F003038365F6E7ABAAAAAA5B
:101DF80098550008836A826992B9012B0AD0022B90
:101E080002D00BB100207047C36A13F0807F28D13D
:101E180000207047C36AB3F1C07F24D00020704708
:101E2800B2F5005F09D0022B25D9032B25D1C36A4F
:101E380013F0807F23D100207047032B03D8DFE8FD
:101E480003F01404140A00207047C36A13F0807F5B
:101E58000DD100207047C36AB3F1C07F09D00020BC
:101E6800704701207047012070470120704701200A
:101E780070470120704701207047002070470120FB
:101E88007047000070B50446FFF730FB002C5BD0AC
:101E98000546022384F83530002384F8343022685C
:101EA800136823F00103136023681A6812F0010F06
:101EB8000AD0FFF71BFB431B052BF5D920236365CD
:101EC800032084F8350070BD1A6820481040616806
:101ED800A2680A43E1680A4321690A4361690A431F
:101EE800A1690A43E1690A43216A0A430243616A14
:101EF80004291ED01A602668756925F00705636AEB
:101F08001D43042B07D1A36A1D43E36A1BB1204676
:101F1800FFF770FF90B975612046FFF74BFFE26D40
:101F28003F239340836000206065012384F83530A7
:101F3800C9E7E16A206B01430A43DBE74023636595
:101F4800012084F83500BEE70120BCE73F8010F08F
:101F5800F0B583B0044600230193724B1D68724BA1
:101F6800A3FB0535AD0A876D3E68C26D0823934013
:101F7800334210D003681A6812F0040F0BD01A68A5
:101F880022F004021A60C26D08239340BB60436DBF
:101F980043F001034365E26D01239340334209D0C6
:101FA8002268526912F0800F04D0BB60636D43F061
:101FB80002036365E26D04239340334209D022682B
:101FC800126812F0020F04D0BB60636D43F0040383
:101FD8006365E26D10239340334224D0226812686F
:101FE80012F0080F1FD0BB6023681A6812F4802F04
:101FF8000DD01B6813F4002F04D1236C9BB120462D
:10200800984710E0A36C73B1204698470BE01A6814
:1020180012F4807F03D11A6822F008021A60236C38
:102028000BB120469847E26D20239340334255D0A8
:102038002268126812F0100F50D0BB6094F8353047
:10204800DBB2052B0ED023681A6812F4802F33D028
:102058001B6813F4002F2AD1636C002B3ED0204656
:1020680098473BE02268136823F016031360226840
:10207800536923F080035361236CA3B1226813686A
:1020880023F008031360E26D3F239340BB600123F4
:1020980084F83530002384F83430236D002B3FD08A
:1020A800204698473CE0A36C002BE7D1EBE7E36BB5
:1020B800A3B12046984711E01A6812F4807F09D12D
:1020C8001A6822F010021A60012384F835300023C0
:1020D80084F83430E36B0BB120469847636DFBB14D
:1020E800636D13F0010F17D0052384F8353022688B
:1020F800136823F001031360019B01330193AB4282
:1021080004D823681B6813F0010FF5D1012384F864
:102118003530002384F83430E36C0BB120469847FF
:1021280003B0F0BD08000020B5814E1B00230F2B23
:1021380000F2E48070B582B060E085685E00032438
:10214800B44025EA0405CC68B4402C438460456853
:1021580025EA02054C68C4F300129A402A434260FB
:102168005AE0DC08083450F8246003F007029500B0
:102178000F22AA4026EA020E0A69AA4042EA0E0283
:1021880040F824205CE0072200E0002202FA0EF268
:102198002A4302345A4D45F824205A4A14686FEAF3
:1021A8000C0224EA0C054E6816F4803F01D04CEA74
:1021B8000405544C2560646802EA04054E6816F468
:1021C800003F01D04CEA04054E4C6560A46802EA61
:1021D80004054E6816F4801F01D04CEA0405494CEA
:1021E800A560E46822404D6815F4001F01D04CEA50
:1021F8000402444CE26001330F2B7DD801229A403F
:102208000C6804EA020C32EA0404F4D14C6804F0C5
:102218000304013C012C90D94A6802F00302032A06
:1022280009D0C4685D000322AA4024EA02048A682F
:10223800AA402243C2604A6802F00302022A90D0F0
:1022480004684FEA430E032202FA0EF224EA02045B
:102258004A6802F0030202FA0EF2224302604A6858
:1022680012F4403FC7D000220192274A546C44F42C
:1022780080445464526C02F480420192019A9C0892
:10228800A51C1F4A52F8255003F003024FEA820E9C
:102298000F2202FA0EF225EA02051C4A90423FF488
:1022A80074AF02F5806290421AD002F580629042C3
:1022B80018D002F58062904216D002F580629042F2
:1022C80014D002F58062904212D002F580629042EA
:1022D80010D002F5806290423FF455AF082255E7CE
:1022E800012253E7022251E703224FE704224DE778
:1022F80005224BE7062249E702B070BD704700BFD0
:1023080000380140003C0140003802400000024013
:102318000AB181617047090481617047002800F0A3
:10232800E08170B582B00446036813F0010F3BD01A
:102338009F4B9B6803F00C03042B2CD09C4B9B6891
:1023480003F00C03082B21D06368B3F5803F4FD00E
:10235800B3F5A02F52D0964B1A6822F480321A6037
:102368001A6822F480221A606368002B50D0FFF7A5
:10237800BDF805468E4B1B6813F4003F14D1FFF7D8
:10238800B5F8401B6428F5D90320B1E1884B5B6898
:1023980013F4800FD8D0864B1B6813F4003F03D08A
:1023A8006368002B00F09F81236813F0020F54D05C
:1023B8007F4B9B6813F00C0F3ED07D4B9B6803F05E
:1023C8000C03082B33D0E368002B68D0794B01222B
:1023D8001A60FFF78BF80546754B1B6813F0020F60
:1023E80054D1FFF783F8401B0228F5D903207FE179
:1023F8006F4A136843F480331360B5E76C4B1A686F
:1024080042F480221A601A6842F480321A60ABE7FC
:10241800FFF76CF80546664B1B6813F4003FC3D002
:10242800FFF764F8401B6428F5D9032060E1604B8E
:102438005B6813F4800FC6D15D4B1B6813F0020F65
:1024480003D0E368012B40F05081594A136823F008
:10245800F803216943EAC1031360236813F0080FE6
:1024680042D063696BB3534B0122C3F8802EFFF748
:102478003DF805464E4B5B6F13F0020F34D1FFF762
:1024880035F8401B0228F5D9032031E1484A136882
:1024980023F0F803216943EAC1031360DDE7454BE4
:1024A80000221A60FFF722F80546414B1B6813F01B
:1024B800020FD2D0FFF71AF8401B0228F5D90320E3
:1024C80016E13C4B0022C3F8802EFFF70FF80546B3
:1024D800374B5B6F13F0020F06D0FFF707F8401B6E
:1024E8000228F5D9032003E1236813F0040F77D0FD
:1024F8002F4B1B6C13F0805F33D1002301932C4BBF
:102508001A6C42F080521A641B6C03F080530193DA
:10251800019B0125284B1B6813F4807F23D0A368F7
:10252800012B34D0052B38D0214B1A6F22F0010231
:102538001A671A6F22F004021A67A368002B3DD0AD
:10254800FEF7D4FF06461A4B1B6F13F0020F46D155
:10255800FEF7CCFF801B41F288339842F3D9032061
:10256800C6E00025D6E7144A136843F48073136065
:10257800FEF7BCFF0646104B1B6813F4807FCED1D4
:10258800FEF7B4FF801B0228F5D90320B0E0084A03
:10259800136F43F001031367CFE7054B1A6F42F03F
:1025A80004021A671A6F42F001021A67C5E700BFF2
:1025B800003802400000474200700040FEF796FFD6
:1025C8000646524B1B6F13F0020F08D0FEF78EFF22
:1025D800801B41F288339842F3D9032088E0EDB993
:1025E800A369002B00F08380484A926802F00C022D
:1025F800082A51D0022B17D0454B00221A66FEF745
:1026080075FF0446414B1B6813F0007F42D0FEF76C
:102618006DFF001B0228F5D9032069E03B4A136CC3
:1026280023F080531364DBE7394B00221A66FEF768
:102638005DFF0546354B1B6813F0007F06D0FEF79B
:1026480055FF401B0228F5D9032051E0E369226AAF
:102658001343626A43EA8213A26A5208013A43EAC0
:102668000243E26A43EA0263284A5360284B012284
:102678001A66FEF73BFF0446244B1B6813F0007FE5
:1026880006D1FEF733FF001B0228F5D903202FE0FF
:1026980000202DE000202BE0012B2BD01B4B5B688A
:1026A80003F48001E269914226D103F03F02216AD6
:1026B8008A4223D1616A47F6C0721A40B2EB811F81
:1026C8001ED103F44031A26A5208013AB1EB024F1D
:1026D80018D103F07063E26AB3EB026F14D10020E3
:1026E80006E001207047012002E0012000E0002000
:1026F80002B070BD0120FBE70120F9E70120F7E7F0
:102708000120F5E70120F3E70120F1E70038024056
:102718000000474208B5254B9B6803F00C03042BC7
:102728003FD0082B3FD1214B5A6802F03F025B682B
:1027380013F4800F12D01D4B5968C1F388111C483F
:102748000023A1FB0001FEF741FA184B5B68C3F3B5
:10275800014301335B00B0FBF3F025E0134B5968EC
:10276800C1F3881C4FEA4C11B1EB0C006EEB0E0E56
:102778004FEA8E1343EA90638101091A63EB0E0353
:10278800DB0043EA5173C90011EB0C0C43F1000361
:10279800990200234FEA8C2041EA9C51FEF716FA71
:1027A800D3E7034800E0034808BD00BF00380240F3
:1027B800001BB7000024F400002800F09B8070B5CF
:1027C8000D4604464F4B1B6803F007038B4208D2A3
:1027D800CBB24C4A1370136803F007038B4240F0E6
:1027E8008B80236813F0020F17D013F0040F04D066
:1027F800454A936843F4E0539360236813F0080F45
:1028080004D0414A936843F4604393603E4A936816
:1028180023F0F003A1680B439360236813F0010FC2
:1028280032D06368012B21D09A1E012A25D9364A55
:10283800126812F0020F61D033498A6822F003024D
:1028480013438B60FEF752FE06462F4B9B6803F03E
:102858000C036268B3EB820F16D0FEF747FE801BAD
:1028680041F288339842F0D9032042E0264A1268A0
:1028780012F4003FE0D101203BE0234A126812F035
:10288800007FD9D1012034E01E4B1B6803F00703F9
:10289800AB4207D9EAB21B4B1A701B6803F0070357
:1028A800AB422DD1236813F0040F06D0164A936863
:1028B80023F4E053E1680B439360236813F0080F97
:1028C80007D0114A936823F46043216943EAC1039E
:1028D8009360FFF71FFF0C4B9B68C3F303130B4A6E
:1028E800D35CD8400A4B18600A4B1868FEF7B2FD53
:1028F800002070BD012070470120FAE70120F8E7A9
:102908000120F6E7003C024000380240A0550008CC
:102918000800002004000020014B1868704700BF21
:102928000800002008B5FFF7F7FF044B9B68C3F3C6
:102938008223034AD35CD84008BD00BF0038024058
:10294800B055000808B5FFF7E7FF044B9B68C3F3D1
:102958004233034AD35CD84008BD00BF0038024068
:10296800B055000838B504460268136923F440538B
:10297800C1680B43136183680269134342691343B7
:10298800C2691A430168CB6823F4164323F00C0389
:102998001343CB600268536923F4407381690B4386
:1029A80053610368314A934206D002F5806293422C
:1029B80002D0FFF7B7FF01E0FFF7C4FFE369B3F503
:1029C800004F29D00021031849411B1841F100018B
:1029D800C90041EA5371DB00181863684FEA8302A3
:1029E8004FEA937341F10001FEF7F0F8204DA5FB83
:1029F80000325109642303FB11031B013233A5FB89
:102A080003235B0903F0F00202EB011203F00F034A
:102A1800216813448B6038BD0023021843EB03017F
:102A2800121841F10001C90041EA5271D200101890
:102A380041F10001626892185B41FEF7C7F80C4D3E
:102A4800A5FB00325109642303FB1103DB00323379
:102A5800A5FB03235B095A0002F4F87202EB01128A
:102A680003F00703216813448B60D4E7001001408A
:102A78001F85EB5158B310B5044690F83D300BB3A1
:102A8800242384F83D302268D36823F40053D360AC
:102A98002046FFF767FF2268136923F49043136108
:102AA8002268536923F02A0353612268D36843F4E8
:102AB8000053D36000202064202384F83D3084F83C
:102AC8003E3010BD80F83C3001F066F9D8E70120AF
:102AD8007047000030B58BB000240194029408259B
:102AE80007954FF4007503950594069404128DF824
:102AF80004408DF8050008128DF806008DF80710BF
:102B080011128DF808108DF809201A128DF80A2074
:102B18008DF80B3009AB01AA03A90248FEF772FE33
:102B28000BB030BDB408002010B58AB00824059455
:102B38000D9C01940024049403948DF81C00081241
:102B48008DF81D008DF81E1011128DF81F108DF8CC
:102B580020201A128DF821208DF822300C9B8DF838
:102B6800233009AB07AA01A90248FEF74BFE0AB0B9
:102B780010BD00BFDC08002000B58BB00023059312
:102B880006930122079200930193029303930493FF
:102B980008920E23099369460C48FEF767FD58B959
:102BA8000A48FEF701FE50B902210848FEF753FF14
:102BB80040B90BB05DF804FB00F0AEFFF0E700F0A1
:102BC800ABFFF1E700F0A8FFF3E700BFB40800206F
:102BD80000B58BB00E2205920023069301210791C0
:102BE8000093019302930393049308910992694611
:102BF8000C48FEF73BFD58B90A48FEF7D5FD50B919
:102C080002210848FEF727FF40B90BB05DF804FB26
:102C180000F082FFF0E700F07FFFF1E700F07CFFB3
:102C2800F3E700BFDC080020024B00221A605A605C
:102C3800704700BF5C04002038B50446274B984213
:102C480007D0274B984235D002212046FEF703FFD4
:102C580038BD244D244B2A460021FEF751FE2B682F
:102C6800DAB2042A12D820498A78120212B2C87835
:102C7800DBB202431D4820F813200A78120212B270
:102C880049780A431A4921F81320DDE7043AD2B2F9
:102C980015498B781B021BB2C8780343154820F8E6
:102CA80012300B781B021BB249780B43124921F8EA
:102CB8001230C9E7114D124B2A460021FEF720FEBB
:102CC8002A6840F201339A4204D002212046FEF7D6
:102CD800C2FEBDE7FFF7A8FFB6E700BFB4080020B3
:102CE800DC0800206C04002064040020AC040020F0
:102CF80094040020A004002088040020B8040020C8
:102D08005C04002010B4164B1B685C6944F0400456
:102D18005C61DC6844F01004DC60124B1C682368BA
:102D280023F00103236003E01C6824F001041C6005
:102D38000C4B1B681C6814F0010FF5D10A4C9C6001
:102D4800D86019615A601A6842F480221A60054BEB
:102D58001A68136843F00103136010BC704700BF82
:102D6800240A0020040900200410014008B5034883
:102D780063228118FFF7C6FF08BD00BFE0040020EA
:102D88002DE9F04383B0002300E00133622B1DDC02
:102D98001946C25C0D2AF8D1C21852780A2AF4D111
:102DA800482BF2DCC218927E0A2AEED10144CA7E70
:102DB8000D2AEAD10022172AE7DC9918014491F874
:102DC80002C0364901F802C00132F4E7344B01224F
:102DD8001A60324D3349E868FDF7C0FD0646324CAB
:102DE80060602F6827602F492869FDF7B7FD054601
:102DF800A0602E493846FDF7B1FD2D49FDF7FAFCD4
:102E0800FDF742FB8046894601F018FAFDF794FB6E
:102E18002849FDF7EFFC01463046FDF7E3FB06467F
:102E2800606024492846FDF7DDFB0546A060404662
:102E3800494601F0B3F9FDF77FFB1E49FDF7DAFCBF
:102E480001462846FDF7CCFB0546A06015493046EB
:102E5800FDF7D0FCFDF794FE0446174B18601149A6
:102E68002846FDF7C7FCFDF78BFE0546134B186097
:102E780013493846FDF7BEFCFDF782FE0346114AAA
:102E8800106040F201320192002200922A46214647
:102E98004120FFF749FE03B0BDE8F083A8050020F4
:102EA800C405002000007A44D40400200000344304
:102EB800DA0F49400AD7233ECC050020D005002070
:102EC8000000C842C005002000B583B02E4B1B6827
:102ED8001A6812F0200F09D0002200921A68009296
:102EE8005B680093009B03B05DF804FB274A1268F7
:102EF80012F0100FF7D0002201921A6801925B6855
:102F08000193019B224B1B681A6812F4002F1CD1F5
:102F18001A6822F001021A601D4802685368C3F15A
:102F280063039BB21B490B8063215160116841F414
:102F38000021116001680A6842F001020A60002B52
:102F4800D1D01548FFF71CFFCDE71A6822F001021F
:102F58001A600F4908684368C3F163030D4A138078
:102F6800632343600D48836A23F40023836209685E
:102F78000B6843F001030B601388002BB3D008489B
:102F8800FFF7FEFEAFE700BF240A00200010014053
:102F980004090020C8050020E00400200060024069
:102FA80043050020F0B587B007460D461446294B67
:102FB80000221A605A601A81FDF714FB064626495A
:102FC8002046FDF717FC044601463046FDF708FB8E
:102FD800049039462846FDF703FB0546014620467E
:102FE800FDF700FB059021463046FDF7FBFA0390FC
:102FF80021462846FDF7F4FA0290012403E0E0B2E6
:1030080000F04CFA0134042C14DC144906AB03EB31
:10301800840353F8140CFDF7A1FC1149FDF7EAFBF2
:103028001049FDF79BFC014614F0010FE7D100F1B0
:103038000041E4E70748B0F90830B0F90620B0F9D4
:103048000410B0F90200FFF745FD0A20FEF754FA14
:1030580007B0F0BD7C060020000020420AD7F340EC
:103068000000F041DA0F49402DE9F04F83B0824665
:103078000C4690462A492B4B1868FDF76FFC2A49E5
:10308800FDF7B8FB06462046FDF7FEF904460D4657
:103098003046FDF7F9F906460F4601F0CFF8CDE9BD
:1030A800000102460B4620462946FDF711FFFDF7B1
:1030B80043FA81465046FDF7E7F982468B4630468B
:1030C800394601F06BF806460F4602460B46504655
:1030D8005946FDF7FDFEFDF72FFA01464846FDF774
:1030E80081FA814632463B4620462946FDF7F0FEE6
:1030F800FDF722FA044652465B46DDE90001FDF77A
:10310800E7FEFDF719FA01462046FDF769FA014680
:1031180009F100404246FFF745FF03B0BDE8F08FD4
:1031280000003443D4040020DA0F4940074B084A12
:103138001A6000225A60074A9A60074ADA62074A08
:103148001A63074A9A62074A5A6370470C060020B6
:1031580000803B4500C0DA4500409C4500401C46C5
:103168008FC2753D00002041074B084A1A600022B3
:103178005A60074A9A60074ADA62074A1A63074A96
:103188009A62074A5A6370474406002000803B450C
:1031980000C0DA4500409C4500401C468FC2753D82
:1031A80000002041084B4FF07E521A6000225A60FE
:1031B800064A9A60064ADA62064A1A63064A9A6218
:1031C800064A5A63704700BFD40500200000A0409B
:1031D8000000C84200401C4600004040000020415A
:1031E800F8B50C460F6A39466068FDF703FB21699C
:1031F800FDF7F8F905462061266B3146FDF7B6FC68
:1032080018B3266121683846FDF7F4FA0646E060EF
:10321800A568616A3846FDF7E3F901462846FDF7D7
:10322800E9FA0546606121693046FDF7DBF9014698
:103238002846FDF7D7F90546A061E66A3146FDF74D
:1032480095FC60B1A661A069F8BD06F1004631465B
:103258002846FDF76DFC0028D4D02661D2E706F198
:10326800004631462846FDF763FC0028EBD0A661EE
:10327800E9E700002DE9F04781460F461546284C3E
:10328800236A6362DFF89CA0DAF80410FDF7A8F956
:103298002062DFF89480D8F82030C8F82430DAF8B3
:1032A80008103846FDF79CF9C8F820001F4E336A0D
:1032B8007362DAF800102846FDF792F93062214669
:1032C8004846FFF78DFF814641463846FFF788FF9D
:1032D800074631462846FFF783FF0546206A20F057
:1032E8000040A16AFDF724FC08B14FF000090E4B1D
:1032F800186A20F00040996AFDF71AFC00B100270F
:103308000A4B186A20F00040996AFDF711FC00B1D9
:1033180000252A4639464846FFF7A6FEBDE8F0874D
:103328000C060020D404002044060020D405002008
:1033380008B5FFF7FBFEFFF717FFFFF733FF08BDE0
:103348000C4BC0EBC00103EBC102DFF82CC043F803
:1033580031C00A4951600A4991604FF48041D162F5
:1033680042F2107111630A2191624FF4FA535363C8
:10337800704700BF8806002000006040CDCC4C3D5F
:103388009A99993E2DE9F8430C46C1EBC103424D89
:1033980005EBC3056E68D5F820804046FDF7D6F9E1
:1033A800074601463046FDF725FA2969FDF71AF95F
:1033B80006462861D5F830904846FDF7C7F9054616
:1033C80001463046FDF7D2FB002841D0C4EBC403C8
:1033D800314A02EBC3031D612F4BC4EBC40203EB5C
:1033E800C20553F832103846FDF704FA0746E8607C
:1033F800AE68686AA8EB0000FDF7A8F93146FDF74A
:10340800F9F90646686129693846FDF7EBF801467F
:103418003046FDF7E7F80646A861EF6A3846FDF73B
:1034280095F9054601463046FDF7A0FB10B3C4EBFD
:10343800C403194A02EBC3039D61C4EBC4041649D3
:1034480001EBC404A069FDF79BFB00B2BDE8F8835B
:10345800C9F10000FDF77AF9054601463046FDF747
:1034680067FB0028B8D0C4EBC4030B4A02EBC303C4
:103478001D61B1E77842FDF769F905460146304616
:10348800FDF756FB0028D8D0C4EBC403024A02EB70
:10349800C3039D61D1E700BF8806002070B50446CC
:1034A8000E46C0EBC003134D05EBC3052B6A6B62D8
:1034B800114B33F91000FDF749F901463046FDF785
:1034C8008FF8FDF75DFB28620028B8BF4042AB6A61
:1034D800984206DAA869FDF753FB084B23F8140055
:1034E80070BD21463046FFF74DFF044B23F814000A
:1034F800F6E700BF88060020AC0400207C06002008
:1035080010B5012403E0E0B2FFF71AFF0134042CE0
:10351800F9DDFFF731FB10BD10B4164B1B685C6971
:1035280044F040045C61DC6844F01004DC60124B39
:103538001C68236823F00103236003E01C6824F05F
:1035480001041C600C4B1B681C6814F0010FF5D1BA
:103558000A4C9C60D86019615A601A6842F480224B
:103568001A60054B1A68136843F00103136010BC16
:10357800704700BF680A0020C409002004480040C2
:1035880008B5034824228118FFF7C6FF08BD00BF0D
:103598006008002000286CD00346002969D030B5A7
:1035A8000478427844EA0224C4F30A040C8090F8B0
:1035B80001E082784FEADE0E4EEA421ECEF30A0E92
:1035C800A1F802E08278C078920942EA800218796C
:1035D80042EA8022C2F30A028A8018795D7940089B
:1035E80040EAC510C0F30A00C88093F805C0CCF3C0
:1035F800011C81F80BC093F805C04FEA9C1C81F8A8
:103608000AC093F806C0DD794CEA052CA1F80CC075
:1036180093F808C05D7A4CEA052CA1F80EC093F81F
:103628000AC0DD7A4CEA052CA1F810C01D7B8D7408
:103638005D7BCD7493F80EC0DD7B4CEA052CA1F8B8
:1036480014C093F810C05B7C4CEA03231BB20B81B7
:10365800A4F580640C80AEF5806EA1F802E0A2F5B6
:1036680080628A80A0F58060C880A3F580630B81A2
:1036780030BD704700B583B02F4B1B681A6812F035
:10368800200F09D0002200921A6800925B6800930C
:10369800009B03B05DF804FB284A126812F0100F73
:1036A800F7D0002201921A6801925B680193019B8E
:1036B800234B1B681A6812F4002F1DD11A6822F0D8
:1036C80001021A601E4802685368C3F124039BB2C2
:1036D8001C490B8024215160116841F400211160BC
:1036E80001680A6842F001020A60122BD1D116491A
:1036F8001648FFF74FFFCCE71A6822F001021A605C
:103708000F4908684368C3F124030E4A1380242331
:1037180043600F48836A23F40023836209680B68B7
:1037280043F001030B601388122BB2D106490948F4
:10373800FFF730FFADE700BF680A002000480040EF
:10374800C4090020AC0800204808002060080020B8
:10375800006002408408002070B53D4BDB7A012BE5
:103768001DD0032B4BD0022B32D1394DB5F90400B3
:10377800FCF7ECFF3749FDF73DF80446B5F90600BC
:10378800FCF7E4FF3349FDF735F80646B5F90000C4
:10379800FCF7DCFF3049FDF72DF8054618E02C4D05
:1037A800B5F90400FCF7D2FF2C49FDF723F80446CD
:1037B800B5F90600FCF7CAFF2849FDF71BF80646CD
:1037C800B5F90000FCF7C2FF2349FDF713F80546D9
:1037D80000212046FDF7A2F948B100213046FDF747
:1037E8009DF920B100212846FDF798F908BB05F19D
:1037F800004204F100403146FFF7D4FB70BD144D80
:10380800B5F90400FCF7A2FF1549FCF7F3FF0446DD
:10381800B5F90600FCF79AFF1149FCF7EBFF0646DD
:10382800B5F90000FCF792FF0B49FCF7E3FF0546EA
:10383800CEE70122042ADADCC2EBC201094B03EB12
:10384800C103002119615961D96099610132F1E719
:10385800480800207CF04140CA261B3E9B6CF24081
:103868006DB2A9408806002008B50D480D4B0360CD
:103878000323436000238360C3604FF41022026176
:103888004FF400124261037643768376C37603775A
:103898004377FDF745FE00B908BD00F03DF9FBE7A9
:1038A800B40800200064004008B50D480D4B0360C3
:1038B8000323436000238360C3604FF41022026136
:1038C8004FF400124261037643768376C37603771A
:1038D8004377FDF725FE00B908BD00F01DF9FBE7A9
:1038E800DC0800200068004010B58AB0002305936A
:1038F800069307930893099303683D4A934204D0BB
:103908003C4A934234D00AB010BD3B4A1368013395
:103918001360012B1FD000240194384B1A6B42F01E
:1039280008021A631B6B03F008030193019B03232E
:1039380005930222069208930923099305A93048A2
:10394800FEF7F4FB224621461420FEF7D9F914208D
:10395800FEF70EFAD7E700230093284B1A6C42F0C3
:1039680000721A641B6C03F000730093009BD2E78B
:1039780000230293214B1A6C42F080621A641B6C7C
:1039880003F080630293029B1B4A136801331360A0
:10399800012B20D000240494184B1A6B42F0020229
:1039A8001A631B6B03F002030493049B60230593C3
:1039B80002230693032308930923099305A91148B1
:1039C800FEF7B4FB224621464020FEF799F9402035
:1039D800FEF7CEF997E700230393084B1A6C42F0E1
:1039E80000721A641B6C03F000730393039BD1E706
:1039F8000064004000680040B00800200038024021
:103A0800000C02400004024010B582B0002400946B
:103A1800164B1A6B42F400121A631A6B02F4001266
:103A28000092009A01941A6B42F480021A631B6B8D
:103A380003F480030193019B224621460C20FEF7E4
:103A48005FF90C20FEF794F9224621463A20FEF74A
:103A580057F93A20FEF78CF9224621464620FEF710
:103A68004FF94620FEF784F902B010BD0038024035
:103A780030B58BB0002405940694079408940994F3
:103A88000094234B1A6B42F002021A631A6B02F07D
:103A980002020092009A01941A6B42F001021A6322
:103AA8001A6B02F001020192019A02941A6B42F019
:103AB80008021A631A6B02F008020292029A03942F
:103AC8001A6B42F004021A631A6B02F004020392A2
:103AD800039A04941A6B42F080021A631B6B03F07A
:103AE80080030493049B0B4D22464FF480512846D3
:103AF800FEF70EFC4FF480530593012306930794B9
:103B0800089405A92846FEF711FB0BB030BD00BF8D
:103B180000380240001C024072B6FEE700B595B0BE
:103B28003022002108A800F077FA002303930493B9
:103B38000593069307930193204A116C41F0805135
:103B48001164126C02F080520192019A02931C4B8C
:103B58001A6842F480421A601B6803F48043029397
:103B6800029B012308934FF48033099302230E9399
:103B78004FF480020F9206221092A82211921293FB
:103B88000423139308A8FEF7C9FB98B90F230393DE
:103B980002230493002305934FF4A05306934FF494
:103BA80080530793052103A8FEF706FE20B915B038
:103BB8005DF804FBFFF7B0FFFFF7AEFF00380240E7
:103BC8000070004008B5FDF76BFCFFF7A7FFFFF793
:103BD8004FFFFFF719FFFFF747FEFFF765FE00F0FD
:103BE800BFF800F0A3F8FFF78BFCFFF7C9FCFFF75D
:103BF800BDF8FEF7EDFFFFF79BFB00224FF4805165
:103C08001A48FEF785FB0FE0194B01221A6012E0F3
:103C180000224FF480511548FEF77AFB15E0154A4B
:103C280015491648FFF726FB154B9B7A012BEBD05D
:103C38000F4B00221A60134B1B68002BE8D001229F
:103C48004FF480510948FEF763FB0D4B9B7A012B1B
:103C5800E5D0032B04D0022BE6D1FFF77DFDE3E787
:103C6800002002460146FFF79DF9DDE7001C0240EF
:103C7800A80800208F42824233331B40A8C64B3F1E
:103C880048080020C405002082B0002100910B4B99
:103C98005A6C42F480425A645A6C02F48042009290
:103CA800009A01911A6C42F080521A641B6C03F05E
:103CB80080530193019B02B0704700BF0038024057
:103CC800FEE7FEE7FEE7FEE7FEE77047704770474E
:103CD80008B5FDF7FFFB08BD08B50248FEF738F93F
:103CE80008BD00BFC409002008B50248FDF7D1FE91
:103CF80008BD00BFB408002008B50248FEF728F93F
:103D080008BD00BF0409002008B50248FDF7C1FE40
:103D180008BD00BFDC08002008B50248FEF718F906
:103D280008BD00BF640900207047000008B50A48B4
:103D38000A4B03604FF4E133436000238360C360A0
:103D480003610C2242618361C361FEF793FE00B9EF
:103D580008BDFFF7E1FEFBE7240A00200010014040
:103D680008B50A480A4B03600A4B43600023836086
:103D7800C36003610C2242618361C361FEF77AFE6E
:103D880000B908BDFFF7C8FEFBE700BF680A0020BE
:103D980000480040A08601002DE9F0418AB00446A1
:103DA8000023059306930793089309930368674ACA
:103DB800934205D0664A93427FD00AB0BDE8F081AD
:103DC80000250095634B5A6C42F010025A645A6CF5
:103DD80002F010020092009A01951A6B42F002025A
:103DE8001A631A6B02F002020192019A02951A6B89
:103DF80042F001021A631B6B03F001030293029B5A
:103E0800802305934FF00208CDF818800327089700
:103E18000726099605A95048FEF788F94FF400735C
:103E28000593CDF8188007950897099605A94B487A
:103E3800FEF77CF94A484B4B03604FF00063436040
:103E480040238360C5604FF48063036145618561E9
:103E5800C5614FF4803303624562FEF713F830BB47
:103E68003F4B63639C634048404B03604FF00063E3
:103E7800436000238360C3604FF480620261436142
:103E880083614FF48072C2614FF400320262436270
:103E9800FDF7F8FF70B9344BA3639C630022114609
:103EA8002520FDF72DFF2520FDF762FF85E7FFF7A9
:103EB80033FED5E7FFF730FEEDE700250395254BE8
:103EC8001A6C42F480221A641A6C02F4802203925B
:103ED800039A04951A6B42F004021A631B6B03F0F1
:103EE80004030493049B4FF4406305930223069351
:103EF800032308930723099305A91D48FEF716F91C
:103F08001C481D4B03604FF0006343608560C5602B
:103F18004FF480630361456185614FF48073C36129
:103F28004FF4403303624562FDF7ACFF58B9114BBB
:103F3800A3639C63002211462720FDF7E1FE27209A
:103F4800FDF716FF39E7FFF7E7FDF0E7001001403E
:103F580000480040003802400004024000000240CF
:103F680064090020B864024004090020406402404B
:103F780000080240C409002028600240DFF834D05D
:103F88000D480E490E4A002302E0D458C4500433A9
:103F9800C4188C42F9D30B4A0B4C002301E0136080
:103FA8000432A242FBD3FFF7BFFE00F011F8FFF77F
:103FB80009FE704700000220000000203C04002099
:103FC800AC5700083C040020B00A0020FEE70000BF
:103FD80070B50D4E0D4D761BB61006D0002455F861
:103FE800043B01349847A642F9D1094E094D761B86
:103FF80001F0C0FAB61006D0002455F8043B01348D
:104008009847A642F9D170BDA0570008A0570008EC
:10401800A8570008A0570008830730B548D0541E99
:10402800002A3FD0CAB2034601E0013C3AD303F864
:10403800012B9D07F9D1032C2DD9CDB245EA0525D1
:104048000F2C45EA054536D9A4F1100222F00F0CD1
:1040580003F1200EE6444FEA121C03F1100242E974
:10406800045542E9025510327245F8D10CF10102AB
:1040780014F00C0F03EB021204F00F0C13D0ACF188
:10408800040323F003030433134442F8045B93420C
:10409800FBD10CF003042CB1CAB21C4403F8012B69
:1040A8009C42FBD130BD64461346002CF4D1F9E79D
:1040B80003461446BFE71A46A446E0E7024B13B18D
:1040C800024800F005B8704700000000E54000080D
:1040D800002301461A46184600F01AB838B5084BAE
:1040E800084D5B1B9C1007D0043B1D44013C55F850
:1040F80004399847002CF9D1BDE8384001F040BA9E
:10410800AC570008A8570008704700BF704700BFA9
:104118002DE9F047DFF87CA00646DAF8000098465B
:104128000F469146FFF7F0FF1B4B1B68D3F8484139
:1041380024B365681F2D26DC5EB96B1C0235DAF8DE
:104148000000636044F82570FFF7E0FF0020BDE839
:10415800F08704EB85010123C1F88890D4F8882101
:10416800AB401A43022EC4F88821C1F80881E4D173
:10417800D4F88C211343C4F88C31DEE703F5A67418
:10418800C3F84841D5E7DAF80000FFF7BFFF4FF062
:10419800FF30DCE738040020B8550008254A21F034
:1041A8000043934223DD10B5234A934286B009DDCC
:1041B80002460B46FCF708F802460B46104619461D
:1041C80006B010BD02AA00F093F800F00304012C19
:1041D80011D0022C23D0CCB10124DDE90423DDE980
:1041E8000201009401F008F802460B46E6E70022B7
:1041F800002300F0A9BADDE90423DDE902010094F7
:1042080000F0FAFF024601F10043D7E7DDE9042395
:10421800DDE9020100F098FA02460B46CEE7DDE937
:104228000423DDE9020100F08FFA024601F10043A0
:10423800C4E700BFFB21E93FFFFFEF7F10B5294A24
:1042480021F00043934286B020DD274A934209DDDE
:1042580002460B46FBF7B8FF02460B4610461946C6
:1042680006B010BD02AA00F043F800F003000128D0
:1042780018D002282AD0F0B1DDE90423DDE90201D3
:1042880000F062FA024601F10043E7E700230093D9
:104298000022002300F0B0FF02460B4610461946E4
:1042A80006B010BDDDE90423DDE9020100F04CFA97
:1042B80002460B46D2E70124DDE90423DDE90201C9
:1042C800009400F099FF02460B46C7E70124DDE998
:1042D8000423DDE90201009400F08EFF024601F19B
:1042E8000043BBE7FB21E93FFFFFEF7F0000000031
:1042F8002DE9F04F1446B64A21F00045954291B099
:1043080040F38580B34A95420F4626DC0029A6A3D0
:10431800D3E9002340F3C481FBF756FFAE4B9D421F
:104328008046894600F08880A1A3D3E90023FBF7E3
:104338004BFF02460B46C4E9002340464946FBF7BB
:1043480043FF9BA3D3E90023FBF73EFFC4E9020127
:104358000126304611B0BDE8F08FA04A954240F3DF
:104368008B809F4A95425DDC2E15A6F21646A5EB7A
:10437800065189468046FDF745F8FCF773F8024672
:104388000B4640464946CDE90A23FBF71DFF954BEE
:104398000022FCF79DFD89468046FDF733F8054667
:1043A800FCF760F802460B4640464946CDE90C2327
:1043B800FBF70AFF8B4B0022FCF78AFD02460B46EF
:1043C800CDE90E2300220023FCF7EAFF002800F0C5
:1043D8006581002D0CBF01230223834A019202222A
:1043E8000092214632460AA800F0DEFA002F06465F
:1043F800AFDAD4E9000505F10041C4E90001E1683C
:10440800A26801F10043C4E902237642A1E700262D
:10441800C4E90001002200233046C4E9022311B098
:10442800BDE8F08F02460B46FBF7CEFE0026C4E936
:104438000201C4E900018CE75FA3D3E90023FBF77D
:10444800C3FE5FA3D3E9002380468946FBF7BCFE81
:1044580002460B46C4E9002340464946FBF7B4FE32
:1044680057A3D3E90023FBF7AFFE0126C4E90201F5
:10447800304611B0BDE8F08F00F080FF52A3D3E9B9
:10448800002380468946FCF723FD584B0022FBF7A2
:104498009DFEFCF7B7FF0646FBF7E4FF42A3D3E90E
:1044A800002382468B46CDE904ABFCF711FD02469A
:1044B8000B4640464946FBF787FE3DA3D3E9002358
:1044C800CDE9020150465946FCF702FD1F2E8046F1
:1044D800894612DC464B721E53F82230AB420CD090
:1044E80002460B46DDE90201FBF76EFE02460B466B
:1044F800C4E9002382468B46B4E02B150793DDE917
:1045080002014B464246FBF75FFEC1F30A53C3EB79
:104518001555102D8B46824640F3A08026A3D3E97B
:104528000023DDE90401FCF7D3FC804689460246F6
:104538000B46DDE90201FBF747FE82468B465246F1
:104548005B46DDE90201FBF73FFE42464B46FBF7BF
:104558003BFE1BA3D3E9002380468946DDE904011D
:10456800FCF7B6FC42464B46FBF72EFE02460B46CE
:104578008046894650465946CDE908ABFBF724FEEC
:10458800079AC1F30A53D31A312B8B46824631DC82
:1045980002460B46C4E90023DDE90823CDE90223DE
:1045A80060E000BFAFF3008000004054FB21F93FFA
:1045B8003163621A61B4D03D0000601A61B4D03D25
:1045C8007370032E8A19A33B83C8C96D305FE43F1B
:1045D800FB21E93F7BD90240FB21F93FFB2139410F
:1045E800FFFFEF7F000070413C5600080000E03FED
:1045F800BC55000848A3D3E90023DDE90401FCF712
:1046080067FC8046894602460B46DDE90801FBF750
:10461800DBFD82468B4652465B46DDE90801CDE963
:1046280002ABFBF7D1FD42464B46FBF7CDFD3CA361
:10463800D3E9002380468946DDE90401FCF748FCFC
:1046480042464B46FBF7C0FD02460B46804689466C
:1046580050465946FBF7B8FD8B46824652465B46A4
:10466800C4E9002352465B46DDE90201FBF7ACFDD5
:1046780042464B46FBF7A8FD002F02460B46C4E90D
:104688000223BFF666AE0BF1004301F10041A060C2
:10469800C4F800A06360E16076425AE603239CE612
:1046A800FBF794FD264B9D428046894616D01EA3F3
:1046B800D3E90023FBF78AFD02460B46C4E9002331
:1046C80040464946FBF780FD17A3D3E90023FBF7D3
:1046D8007DFD4FF0FF36C4E902013AE614A3D3E9A1
:1046E8000023FBF773FD14A3D3E900238046894612
:1046F800FBF76CFD02460B46C4E9002340464946D9
:10470800FBF762FD0CA3D3E90023FBF75FFD4FF035
:10471800FF36C4E902011CE60000002E8A19A33BFB
:10472800C14920259A837B393163621A61B4D03D2F
:104738000000601A61B4D03D7370032E8A19A33B40
:10474800FB21F93F000000002DE9F04F21F000485F
:1047580087B0B8F1795F92469B460646019170DAB8
:10476800FCF750FE002800F0F480019B3246194601
:104778003046FCF7ADFB7AA3D3E9002304460D4687
:10478800FCF7A6FB78A3D3E90023FBF71FFD22461D
:104798002B46FCF79DFB76A3D3E90023FBF714FD1A
:1047A80022462B46FCF794FB73A3D3E90023FBF7BF
:1047B8000DFD22462B46FCF78BFB71A3D3E90023A2
:1047C800FBF702FD22462B46FCF782FB6EA3D3E9DA
:1047D8000023FBF7FBFC22462B46FCF779FBCDE9CF
:1047E80002016B4B002220462946FCF771FBDDE9EC
:1047F80002238046894620462946FCF769FB4D4638
:10480800DDF804904446B0460F46064652465B46DD
:1048180040464946FCF75CFB02460B4630463946A3
:10482800FBF7D2FC02460B4620462946FBF7CCFC98
:1048380002460B4600205749FBF7C6FC07B0BDE807
:10484800F08F019B0246FCF743FB45A3D3E9002305
:1048580004460D46FCF73CFB43A3D3E90023FBF7D2
:10486800B5FC22462B46FCF733FB41A3D3E90023D2
:10487800FBF7AAFC22462B46FCF72AFB3EA3D3E90A
:104888000023FBF7A3FC22462B46FCF721FB3CA3A5
:10489800D3E90023FBF798FC22462B46FCF718FBCC
:1048A80039A3D3E90023FBF791FC2B462246FCF7FA
:1048B8000FFB394B9845CDE9020192DD374B9845FE
:1048C8004FF000023DDCA8F5001332490020904665
:1048D8009946FBF779FCCDE904012D4B00222046CF
:1048E8002946FCF7F5FA42464B46FBF76DFCDDE935
:1048F80002238046894620462946FCF7E9FA4D46B8
:10490800DDF804904446B0460F46064652465B46DC
:1049180040464946FCF7DCFA02460B463046394623
:10492800FBF752FC02460B4620462946FBF74CFC97
:1049380002460B46DDE90401FBF746FC07B0BDE87B
:10494800F08F174BDFF85C90CDE904234FF0000897
:10495800C3E71049002007B0BDE8F08FAFF300802F
:10496800D43888BEE9FAA8BDC4B1B4BD9EEE213ED4
:10497800AD529C804F7E923E9015CB19A001FA3E15
:104988007751C1166CC1563F4C5555555555A53FE5
:104998000000E03F0000F03F3233D33F0000E93F22
:1049A8000000E73F0000D23F2DE9F04FADF5197D3B
:1049B8001C4608930B91B84BA29953F821300593E4
:1049C80012F1140F04F1FF3306460393C0F240833B
:1049D800B249D31E81FB0301DB17C3EBA103079385
:1049E8000133A3EB8303DB00D3180693079A039BD9
:1049F800D41A059AD7181BD40137DDF88CA227449E
:104A080020AD4FF000084FF0000908E05AF82400E4
:104A1800FBF728FD0134BC42E5E8020108D0002C70
:104A2800F4DA013440464946BC42E5E80201F6D1D1
:104A3800059B002BC0F2BC83089BDDF80C9020AAD4
:104A480002EBC30ADA000292059AA6F108011A4499
:104A580004910DF5E07B019201EBC308039B002B49
:104A6800C0F2AF81049E57460024002577E902234F
:104A7800F6E90201FCF72CFA02460B4620462946C5
:104A8800FBF7A4FB464504460D46EFD1019B09F10F
:104A980001099945EBE802450AF1080ADED1049BB1
:104AA800DDF808B0059A01929B440BAB03EB820337
:104AB8000A930CAB03EB8203083B0993019A98AB6A
:104AC80003EBC203002A53E9284529DD0DF5E07AF6
:104AD8000AEBC2080DF13009714B00222046294625
:104AE800FCF7F6F9FCF78EFCFBF7BCFC6D4B0022DB
:104AF80006460F46FCF7ECF902460B4620462946C7
:104B0800FBF762FBFCF77EFC78E9022349F8040B0B
:104B180039463046FBF75AFBD04504460D46DBD1F3
:104B2800DDF81890204629464A4600F0A9FC0022E4
:104B38004FF07F5304460D46FCF7CAF900F024FCF9
:104B4800594B0022FCF7C4F902460B462046294679
:104B5800FBF73AFB0D460446FCF754FC8046FBF78E
:104B680081FC0B46024629462046FBF72DFB4B46A7
:104B7800002B06460F4640F39980019A511E0CAA55
:104B8800C9F1180352F8212042FA03F000FA03F39E
:104B9800D31AC9F117050CAA43FA05F5002D42F8F6
:104BA8002130804400F38C800022002330463946AF
:104BB800FCF7F6FB002800F05282019B059A03F1EE
:104BC800FF3A524510DC03F180430CAA013B0A98D6
:104BD80002EB8303002253F80419834242EA0102DC
:104BE800F9D1002A40F0F080059B0CAA013B52F84D
:104BF8002330002B40F0E080099A012352F8041971
:104C080001330029FAD0019AD3180293531C99460C
:104C1800DDF80480089A9044079A02EB030A0AF127
:104C2800804AA39A0AF1FF3A02EB8A0A20AA02EB09
:104C3800C80870AA02EBC30301935AF8040FFBF7E4
:104C480011FC039B002BC8E90001474608F108083E
:104C58001FDB049E083F0024002501E077E80201DD
:104C6800F6E90223FCF734F902460B4620462946AA
:104C7800FBF7ACFA5E4504460D46EFD1019BE3E82D
:104C880002450193029B09F101099945D5DD01937C
:104C980014E700240025F1E788570008ABAAAA2AE0
:104CA8000000703E00007041000020406BD1019B65
:104CB8000CAA013B52F82350ED15002D7FF774AF75
:104CC800019B002B08F1010840F3C7810C9C002CC4
:104CD80051D1019B012B20D00CAB012253F8044F7A
:104CE800002C4BD0531C0CA9C4F1807441F822400D
:104CF8000199994210DD0CAA0CA852F8232000EB68
:104D0800830300EB81006FF07F4100E01A688A1A84
:104D180043F8042B8342F9D10124069B002B0EDDB6
:104D2800012B00F08A81022B09D1019B5A1E0CAB82
:104D38000CA953F82230C3F3150341F82230022D91
:104D48007FF432AF32463B4679490020FBF73CFA04
:104D580006460F46002C3FF427AF069A74490020F8
:104D680000F08EFB02460B4630463946FBF72CFA1C
:104D780006460F4618E701230022B4E701990132DD
:104D88008A42ABD1C9E76B4B0022FCF727FB0546EB
:104D980000283FF409AF019B002B08F10108C8BFA8
:104DA800022593DC32463B4661490020FBF70CFAAA
:104DB800022506460F46F7E6019B01339946029302
:104DC80026E70024002561E6069B0395A3F1180257
:104DD8000CABCDF81C8053F82A30069273B9019BAE
:104DE80003F18043023B0CA901EB830353F8041938
:104DF8000AF1FF3A183A0029F8D00692069A4C4967
:104E0800002000F03DFBBAF1000F04460D46C0F249
:104E1800D68170AB03EBCA0B0CAA0AF10103069307
:104E280002EB8306DFF810914FEACA0304930BF1F3
:104E380008074FF0000856F8040DFBF713FB22464D
:104E48002B46FCF745F84B4667E9020142462046E7
:104E58002946FCF73DF80CAB9E4204460D46EAD1C4
:104E680048ABCDE9013ADDF814A0BAF1000F4FF0D4
:104E780000092CDB2CA3D3E90023DFF8C0805F46B0
:104E880000260024002503E0B14510DBF8E80223E2
:104E9800F7E80201FCF71CF802460B4620462946B3
:104EA800FBF794F90136B24504460D46ECDA019B4E
:104EB800029A03EBC9039145C3E90045ABF1080B1E
:104EC80009F1010306D0BAF1000F9946D2DA00249D
:104ED8000025ECE7A29BDDF808A0022B30DC002BB4
:104EE80000F3F08018D1049CA29A019D08342C4448
:104EF80013461046194674E90223FBF767F9A542E1
:104F080002460B46F5D1039909B103F1004319464E
:104F18000B9B1046C3E90001079B03F007000DF542
:104F2800197DBDE8F08F00BF00000040FB21F93F6C
:104F38000000F03F0000E03F0000703E50570008BE
:104F4800A29B032BE8D1BAF1000F00F04E81019B20
:104F5800049A1344D3E900459B465BE9026720465F
:104F6800294632463B46FBF731F9A046A946044696
:104F78000D4622462B4630463946FBF725F94B4667
:104F88004246FBF723F9CBE900016BE90245019B97
:104F98005B45E2D1BAF1010F40F32781049B019AE6
:104FA8001344D3E9004502939A460DF5947B5AE9D8
:104FB80002672046294632463B46FBF707F9A046DA
:104FC800A94604460D4622462B4630463946FBF78D
:104FD800FBF842464B46FBF7F9F8CAE900016AE9D3
:104FE8000245D345E3D1019A029C002302F1100542
:104FF80008341A461846114674E90223FBF7E6F806
:10500800A54203460A46F5D10399002940F0A48039
:105018001846019B0B9C1146D3E90223C4E90223DD
:10502800DDE94823C4E90023079BC4E9040103F030
:1050380007000DF5197DBDE8F08F019B5A1E0CABDA
:105048000CA953F82230C3F3160341F8223076E650
:1050580000216FF017030791C6E400245DE6069C63
:105068000395304639466242CDF81C8000F008FAB4
:105078005F4B002206460F46FCF7B0F9002861D0C6
:105088005C4B019D00221834304639460694FBF7E4
:105098001FFFFCF7B7F90446FBF7E4F9544B00226D
:1050A800FBF716FF0B46024639463046FBF78CF8ED
:1050B800FCF7A8F905F1010A0CAB43F8250043F801
:1050C8002A409BE6069B019D002605EBC304334658
:1050D8003046194674E90223FBF778F8A5420646DC
:1050E8000B46F5D1039A3046002A4FD119460B9B3F
:1050F8003246C3E900010B46DDE94801FBF764F8D5
:10510800BAF1000F02460B4610DD48AD01241046E7
:105118001946F5E90223FBF759F80134A24502467E
:105128000B46F4DA039909B103F1004319460B9BC6
:105138001046C3E90201079B03F007000DF5197D2E
:10514800BDE8F08F30463946FCF75CF9019B0CAAA4
:105158009A4642F8230051E60B9E3361019B02F107
:10516800004298681C6872611A465B6803F1004542
:10517800D36803F10041079BC6E9020103F0070069
:10518800C6E900450DF5197DBDE8F08F0B9A194663
:1051980003F10043536016600B463246DDE94801CF
:1051A800FBF712F8BAF1000F02460B46ADDCBBE77D
:1051B800A6F108030493089BDB0002936FE4A29B0B
:1051C800022B06DC002B0DDC7FF4A6AEA29A134658
:1051D80099E6A29B032B7FF49FAE002348A91A46A9
:1051E800019111E7002633467CE700231A460BE7B6
:1051F800000070410000703E2DE9F04F994687B0DD
:1052080021F00043B3F1795F90460446019104DA36
:10521800FCF7F8F8002800F08F80019B2246194619
:105228002046FBF755FE019B06460F4632461946B7
:1052380020463B46FBF74CFE43A3D3E900238246B6
:105248008B4630463946FBF743FE41A3D3E900239A
:10525800FAF7BAFF32463B46FBF73AFE3EA3D3E9DC
:105268000023FAF7B3FF32463B46FBF731FE3CA377
:10527800D3E90023FAF7A8FF32463B46FBF728FE9E
:1052880039A3D3E90023FAF7A1FF109BCDE9020166
:10529800002B37D0384B002240464946FBF718FE12
:1052A800DDE90223CDE9040150465946FBF710FE1B
:1052B80002460B46DDE90401FAF786FF32463B4613
:1052C800FBF706FE42464B46FAF77EFF28A3D3E9D2
:1052D800002306460F4650465946FBF7F9FD02469D
:1052E8000B4630463946FAF771FF02460B46204610
:1052F8000199FAF769FF04460D462046294607B08A
:10530800BDE8F08F02460B4630463946FBF7E0FD14
:1053180017A3D3E90023FAF757FF52465B46FBF77A
:10532800D7FD2246019BFAF751FF04460D46204659
:10533800294607B0BDE8F08F019D2046294607B0F1
:10534800BDE8F08FAFF300807CD5CF5A3AD9E53D60
:10535800EB9C2B8AE6E55A3E7DFEB157E31DC73E1E
:10536800D561C119A0012A3FA6F810111111813F7A
:10537800495555555555C53F0000E03F21F00041BE
:10538800704700BF00000000C1F30A52F8B5A2F24E
:10539800FF35132D0B4684460C46064630DC002D9F
:1053A8001EDB354F2F4101EA0702024315D030A317
:1053B800D3E90023FAF70AFF00220023FCF718F8C4
:1053C80048B1002C04DA4FF4801343FA05F52C4455
:1053D80024EA070400262346B44660461946F8BD69
:1053E80023A3D3E90023FAF7F1FE00220023FBF7F9
:1053F800FFFF0028EFD0002C24DB00263446EAE724
:10540800332D08DDB5F5806FE7D10246FAF7DEFEE9
:1054180084460B46E1E7A2F213424FF0FF37D7402C
:105428000742DAD012A3D3E90023FAF7CFFE00220D
:105438000023FBF7DDFF0028CDD0002C0BDB26EA8C
:105448000706C8E724F000430C4A1E43002E18BF85
:1054580014460026BFE7142D08D00123C5F13405F2
:1054680003FA05F5AE1928BFE418E8E70134E6E7C2
:105478009C7500883CE4377EFFFF0F000000F0BFFA
:10548800C1F30A5370B58C4604460D4616467BBBDD
:1054980021F0004C03465CEA030328D0304B00227D
:1054A800FBF716FD2F4B9E4204460D461ADBC1F34F
:1054B8000A538C46363B334440F2FE72934220DC5A
:1054C800002B3CDC13F1350F2CDA4CF250339E42A2
:1054D80017DC05F0004343F0D27141F4B73122489C
:1054E80041F01F011AA3D3E90023FBF7F1FC70BDBB
:1054F80040F2FF729342DED102460B46FAF766FE8F
:1055080070BD05F0004343F0FC4141F45F1141F4E4
:10551800105111A3D3E90023144841F03C01FBF7D3
:10552800D7FC70BD2CF0FF4C36332CF4E00C4CEA61
:10553800035120460E4B0022FBF7CAFC70BD2CF02D
:10554800FF4C2CF4E00C20464CEA035170BD00BF20
:1055580059F3F8C21F6EA5019C7500883CE4377E9C
:1055680000005043B03CFFFF59F3F8C29C75008817
:105578000000903CF8B500BFF8BC08BC9E467047D8
:0C558800F8B500BFF8BC08BC9E46704798
:1055980000061016000610160000000000000000AB
:1055A80001020304060708090000000001020304C1
:1055B80010000020FB21F93FFB2109407CD9124053
:1055C800FB2119407A6A1F407CD92240BBFD254047
:1055D800FB2129403A462C407A6A2F405C473140EB
:1055E8007CD932409C6B3440BBFD3540DB8F374063
:1055F800FB2139401BB43A403A463C405AD83D401A
:105608007A6A3F404C7E40405C4741406C104240C3
:105618007CD942408CA243409C6B4440AC3445400A
:10562800BBFD4540CBC64640DB8F4740EB58484062
:10563800FB21494083F9A200444E6E00FC29150065
:10564800D1572700DD34F50062DBC0003C99950096
:10565800419043006351FE00BBDEAB00B761C5005B
:105668003A6E2400D24D42004906E00009EA2E00B5
:105678001C92D100EB1DFE0029B11C00E83EA700DA
:10568800F535820044BB2E009CE98400B4267000E6
:10569800417E5F00D6913900538339009CF439006C
:1056A8008B5F840028F9BD00F81F3B00DEFF9700E0
:1056B8000F980500112FEF000A5A8B006D1F6D001F
:1056C800CF7E360009CB2700464FB7009E663F00C5
:1056D8002DEA5F00BA277500E5EBC7003D7BF100B6
:1056E800F739070092528A00FB6BEA001FB15F008E
:1056F800085D8D00300356007BFC4600F0AB6B0064
:1057080020BCCF0036F49A00E3A91D005E61910029
:10571800081BE60085996500A0145F008D406800AD
:1057280080D8FF0027734D0006063100CA561500C1
:10573800C9A873007BE260006B8CC0000000000009
:1057480000000040FB21F93F000000002D44743E9A
:10575800000000809846F83C0000006051CC783B7F
:1057680000000080831BF0390000004020257A38B3
:10577800000000802282E336000000001DF3693536
:105788000200000003000000040000000600000002
:085798006CB4FF7F010000006A
:0857A000C5400008AD0100083E
:0457A800890100086B
:1057AC0001000000100000000024F40000000000C4
:1057BC0000000000FC02002064030020CC03002049
:1057CC0000000000000000000000000000000000CD
:1057DC0000000000000000000000000000000000BD
:1057EC0000000000000000000000000000000000AD
:1057FC00000000000000000000000000000000009D
:10580C00000000000000000000000000000000008C
:10581C00000000000000000000000000000000007C
:10582C00000000000000000000000000000000006C
:10583C00000000000000000000000000000000005C
:10584C00000000000000000000000000000000004C
:10585C00000000000000000001000000000000003B
:10586C000E33CDAB34126DE6ECDE05000B00000000
:10587C00000000000000000000000000000000001C
:10588C00000000000000000000000000000000000C
:10589C0000000000000000000000000000000000FC
:1058AC0000000000000000000000000000000000EC
:0C5BDC000000000000000000AC0A0020E7
:0400000508003F852B
:00000001FF
